{
  "contractName": "APIConsumer",
  "abi": [
    {
      "inputs": [],
      "stateMutability": "nonpayable",
      "type": "constructor"
    },
    {
      "anonymous": false,
      "inputs": [
        {
          "indexed": true,
          "internalType": "bytes32",
          "name": "id",
          "type": "bytes32"
        }
      ],
      "name": "ChainlinkCancelled",
      "type": "event"
    },
    {
      "anonymous": false,
      "inputs": [
        {
          "indexed": true,
          "internalType": "bytes32",
          "name": "id",
          "type": "bytes32"
        }
      ],
      "name": "ChainlinkFulfilled",
      "type": "event"
    },
    {
      "anonymous": false,
      "inputs": [
        {
          "indexed": true,
          "internalType": "bytes32",
          "name": "id",
          "type": "bytes32"
        }
      ],
      "name": "ChainlinkRequested",
      "type": "event"
    },
    {
      "inputs": [],
      "name": "action",
      "outputs": [
        {
          "internalType": "uint256",
          "name": "",
          "type": "uint256"
        }
      ],
      "stateMutability": "view",
      "type": "function"
    },
    {
      "inputs": [],
      "name": "expectedAmount",
      "outputs": [
        {
          "internalType": "uint256",
          "name": "",
          "type": "uint256"
        }
      ],
      "stateMutability": "view",
      "type": "function"
    },
    {
      "inputs": [],
      "name": "finalWinner",
      "outputs": [
        {
          "internalType": "bool",
          "name": "",
          "type": "bool"
        }
      ],
      "stateMutability": "view",
      "type": "function"
    },
    {
      "inputs": [],
      "name": "marketResolved",
      "outputs": [
        {
          "internalType": "bool",
          "name": "",
          "type": "bool"
        }
      ],
      "stateMutability": "view",
      "type": "function"
    },
    {
      "inputs": [],
      "name": "resultAmount",
      "outputs": [
        {
          "internalType": "uint256",
          "name": "",
          "type": "uint256"
        }
      ],
      "stateMutability": "view",
      "type": "function"
    },
    {
      "inputs": [
        {
          "internalType": "string",
          "name": "token1",
          "type": "string"
        },
        {
          "internalType": "string",
          "name": "token2",
          "type": "string"
        },
        {
          "internalType": "uint256",
          "name": "_action",
          "type": "uint256"
        },
        {
          "internalType": "uint256",
          "name": "_expectedAmount",
          "type": "uint256"
        }
      ],
      "name": "requestVolumeData",
      "outputs": [
        {
          "internalType": "bytes32",
          "name": "requestId",
          "type": "bytes32"
        }
      ],
      "stateMutability": "nonpayable",
      "type": "function"
    },
    {
      "inputs": [
        {
          "internalType": "bytes32",
          "name": "_requestId",
          "type": "bytes32"
        },
        {
          "internalType": "uint256",
          "name": "_volume",
          "type": "uint256"
        }
      ],
      "name": "fulfill",
      "outputs": [],
      "stateMutability": "nonpayable",
      "type": "function"
    },
    {
      "inputs": [],
      "name": "withdrawLink",
      "outputs": [],
      "stateMutability": "nonpayable",
      "type": "function"
    }
  ],
  "bytecode": "0x6080604052600160045534801561001557600080fd5b506100246100cf60201b60201c565b732f90a6d021db21e1b2a077c5a37b3c7e75d15b7e600a60016101000a81548173ffffffffffffffffffffffffffffffffffffffff021916908373ffffffffffffffffffffffffffffffffffffffff1602179055507f3239666139616131336266313436383738386237636334613530306134356238600b8190555067016345785d8a0000600c819055506000600860006101000a81548160ff0219169083151502179055506101b8565b61017273c89bd4e1632d3a43cb03aaad5262cbe4038bc57173ffffffffffffffffffffffffffffffffffffffff166338cc48316040518163ffffffff1660e01b815260040160206040518083038186803b15801561012c57600080fd5b505afa158015610140573d6000803e3d6000fd5b505050506040513d602081101561015657600080fd5b810190808051906020019092919050505061017460201b60201c565b565b80600260006101000a81548173ffffffffffffffffffffffffffffffffffffffff021916908373ffffffffffffffffffffffffffffffffffffffff16021790555050565b611506806101c76000396000f3fe608060405234801561001057600080fd5b50600436106100885760003560e01c80634357855e1161005b5780634357855e14610107578063853fd4211461013f5780638dc654a21461015f578063902a24f11461016957610088565b80630a7a1c4d1461008d5780631a29fc80146100ab5780631e0419d4146100c95780632feef2ec146100e9575b600080fd5b6100956102e3565b6040518082815260200191505060405180910390f35b6100b36102e9565b6040518082815260200191505060405180910390f35b6100d16102ef565b60405180821515815260200191505060405180910390f35b6100f1610302565b6040518082815260200191505060405180910390f35b61013d6004803603604081101561011d57600080fd5b810190808035906020019092919080359060200190929190505050610308565b005b6101476104ea565b60405180821515815260200191505060405180910390f35b6101676104fd565b005b6102cd6004803603608081101561017f57600080fd5b810190808035906020019064010000000081111561019c57600080fd5b8201836020820111156101ae57600080fd5b803590602001918460018302840111640100000000831117156101d057600080fd5b91908080601f016020809104026020016040519081016040528093929190818152602001838380828437600081840152601f19601f8201169050808301925050505050505091929192908035906020019064010000000081111561023357600080fd5b82018360208201111561024557600080fd5b8035906020019184600183028401116401000000008311171561026757600080fd5b91908080601f016020809104026020016040519081016040528093929190818152602001838380828437600081840152601f19601f82011690508083019250505050505050919291929080359060200190929190803590602001909291905050506106cb565b6040518082815260200191505060405180910390f35b60075481565b60095481565b600a60009054906101000a900460ff1681565b60065481565b816005600082815260200190815260200160002060009054906101000a900473ffffffffffffffffffffffffffffffffffffffff1673ffffffffffffffffffffffffffffffffffffffff163373ffffffffffffffffffffffffffffffffffffffff16146103c0576040517f08c379a00000000000000000000000000000000000000000000000000000000081526004018080602001828103825260288152602001806114a96028913960400191505060405180910390fd5b6005600082815260200190815260200160002060006101000a81549073ffffffffffffffffffffffffffffffffffffffff0219169055807f7cc135e0cebb02c3480ae5d74d377283180a2601f8f644edf7987b009316c63a60405160405180910390a2816009819055506001600860006101000a81548160ff0219169083151502179055506000600754141561047f57600954670de0b6b3a76400006006540211600a60006101000a81548160ff0219169083151502179055506104e5565b600160075414156104b957600954670de0b6b3a76400006006540210600a60006101000a81548160ff0219169083151502179055506104e4565b600954670de0b6b3a76400006006540214600a60006101000a81548160ff0219169083151502179055505b5b505050565b600860009054906101000a900460ff1681565b6000610507610a40565b90508073ffffffffffffffffffffffffffffffffffffffff1663a9059cbb338373ffffffffffffffffffffffffffffffffffffffff166370a08231306040518263ffffffff1660e01b8152600401808273ffffffffffffffffffffffffffffffffffffffff16815260200191505060206040518083038186803b15801561058d57600080fd5b505afa1580156105a1573d6000803e3d6000fd5b505050506040513d60208110156105b757600080fd5b81019080805190602001909291905050506040518363ffffffff1660e01b8152600401808373ffffffffffffffffffffffffffffffffffffffff16815260200182815260200192505050602060405180830381600087803b15801561061b57600080fd5b505af115801561062f573d6000803e3d6000fd5b505050506040513d602081101561064557600080fd5b81019080805190602001909291905050506106c8576040517f08c379a00000000000000000000000000000000000000000000000000000000081526004018080602001828103825260128152602001807f556e61626c6520746f207472616e73666572000000000000000000000000000081525060200191505060405180910390fd5b50565b60006106d56113d1565b6106e9600b5430634357855e60e01b610a6a565b90506109216040518060400160405280600381526020017f67657400000000000000000000000000000000000000000000000000000000008152508760405160200180807f6673796d3d00000000000000000000000000000000000000000000000000000081525060050182805190602001908083835b602083106107835780518252602082019150602081019050602083039250610760565b6001836020036101000a0380198251168184511680821785525050505050509050019150506040516020818303038152906040528760405160200180807f267473796d733d0000000000000000000000000000000000000000000000000081525060070182805190602001908083835b6020831061081657805182526020820191506020810190506020830392506107f3565b6001836020036101000a038019825116818451168082178552505050505050905001915050604051602081830303815290604052604051602001808061147c602d9139602d0183805190602001908083835b6020831061088b5780518252602082019150602081019050602083039250610868565b6001836020036101000a03801982511681845116808217855250505050505090500182805190602001908083835b602083106108dc57805182526020820191506020810190506020830392506108b9565b6001836020036101000a0380198251168184511680821785525050505050509050019250505060405160208183030381529060405283610a9b9092919063ffffffff16565b6109a06040518060400160405280600481526020017f70617468000000000000000000000000000000000000000000000000000000008152506040518060400160405280600381526020017f555344000000000000000000000000000000000000000000000000000000000081525083610a9b9092919063ffffffff16565b6000670de0b6b3a764000090506109f76040518060400160405280600581526020017f74696d65730000000000000000000000000000000000000000000000000000008152508284610ace9092919063ffffffff16565b8460078190555083600681905550610a34600a60019054906101000a900473ffffffffffffffffffffffffffffffffffffffff1683600c54610b01565b92505050949350505050565b6000600260009054906101000a900473ffffffffffffffffffffffffffffffffffffffff16905090565b610a726113d1565b610a7a6113d1565b610a9185858584610d8a909392919063ffffffff16565b9150509392505050565b610ab2828460800151610e3a90919063ffffffff16565b610ac9818460800151610e3a90919063ffffffff16565b505050565b610ae5828460800151610e3a90919063ffffffff16565b610afc818460800151610e5f90919063ffffffff16565b505050565b600030600454604051602001808373ffffffffffffffffffffffffffffffffffffffff1660601b815260140182815260200192505050604051602081830303815290604052805190602001209050600454836060018181525050836005600083815260200190815260200160002060006101000a81548173ffffffffffffffffffffffffffffffffffffffff021916908373ffffffffffffffffffffffffffffffffffffffff160217905550807fb5e6e01e79f91267dc17b4e6314d5d4d03593d2ceee0fbb452b750bd70ea5af960405160405180910390a2600260009054906101000a900473ffffffffffffffffffffffffffffffffffffffff1673ffffffffffffffffffffffffffffffffffffffff16634000aea08584610c2387610eab565b6040518463ffffffff1660e01b8152600401808473ffffffffffffffffffffffffffffffffffffffff16815260200183815260200180602001828103825283818151815260200191508051906020019080838360005b83811015610c94578082015181840152602081019050610c79565b50505050905090810190601f168015610cc15780820380516001836020036101000a031916815260200191505b50945050505050602060405180830381600087803b158015610ce257600080fd5b505af1158015610cf6573d6000803e3d6000fd5b505050506040513d6020811015610d0c57600080fd5b8101908080519060200190929190505050610d72576040517f08c379a00000000000000000000000000000000000000000000000000000000081526004018080602001828103825260238152602001806114596023913960400191505060405180910390fd5b60016004600082825401925050819055509392505050565b610d926113d1565b610da2856080015161010061102c565b508385600001818152505082856020019073ffffffffffffffffffffffffffffffffffffffff16908173ffffffffffffffffffffffffffffffffffffffff16815250508185604001907bffffffffffffffffffffffffffffffffffffffffffffffffffffffff191690817bffffffffffffffffffffffffffffffffffffffffffffffffffffffff191681525050849050949350505050565b610e478260038351611080565b610e5a81836111c590919063ffffffff16565b505050565b60008112610e7857610e7382600083611080565b610ea7565b610ea6826001837fffffffffffffffffffffffffffffffffffffffffffffffffffffffffffffffff03611080565b5b5050565b6060634042994660e01b60008084600001518560200151866040015187606001516001896080015160000151604051602401808973ffffffffffffffffffffffffffffffffffffffff1681526020018881526020018781526020018673ffffffffffffffffffffffffffffffffffffffff168152602001857bffffffffffffffffffffffffffffffffffffffffffffffffffffffff1916815260200184815260200183815260200180602001828103825283818151815260200191508051906020019080838360005b83811015610f8f578082015181840152602081019050610f74565b50505050905090810190601f168015610fbc5780820380516001836020036101000a031916815260200191505b509950505050505050505050604051602081830303815290604052907bffffffffffffffffffffffffffffffffffffffffffffffffffffffff19166020820180517bffffffffffffffffffffffffffffffffffffffffffffffffffffffff83818316178352505050509050919050565b61103461143e565b60006020838161104057fe5b0614611059576020828161105057fe5b06602003820191505b81836020018181525050604051808452600081528281016020016040525082905092915050565b601781116110ad576110a78160058460ff16901b60ff1617846111e790919063ffffffff16565b506111c0565b60ff81116110ef576110d2601860058460ff16901b17846111e790919063ffffffff16565b506110e9816001856112079092919063ffffffff16565b506111bf565b61ffff811161113257611115601960058460ff16901b17846111e790919063ffffffff16565b5061112c816002856112079092919063ffffffff16565b506111be565b63ffffffff81116111775761115a601a60058460ff16901b17846111e790919063ffffffff16565b50611171816004856112079092919063ffffffff16565b506111bd565b67ffffffffffffffff81116111bc576111a3601b60058460ff16901b17846111e790919063ffffffff16565b506111ba816008856112079092919063ffffffff16565b505b5b5b5b5b505050565b6111cd61143e565b6111df83846000015151848551611229565b905092915050565b6111ef61143e565b6111ff83846000015151846112e2565b905092915050565b61120f61143e565b611220848560000151518585611330565b90509392505050565b61123161143e565b825182111561123f57600080fd5b8460200151828501111561126a576112698560026112638860200151888701611391565b026113ad565b5b6000808651805187602083010193508088870111156112895787860182525b60208701925050505b602084106112b55780518252602082019150602081019050602084039350611292565b60006001856020036101000a03905080198251168184511681811785525050879350505050949350505050565b6112ea61143e565b83602001518310611307576113068460028660200151026113ad565b5b8351805160208583010184815381861415611323576001820183525b5050508390509392505050565b61133861143e565b8460200151848301111561135657611355856002868501026113ad565b5b60006001836101000a03905085518386820101858319825116178152815185880111156113835784870182525b505085915050949350505050565b6000818311156113a3578290506113a7565b8190505b92915050565b6060826000015190506113c0838361102c565b506113cb83826111c5565b50505050565b6040518060a0016040528060008019168152602001600073ffffffffffffffffffffffffffffffffffffffff16815260200160007bffffffffffffffffffffffffffffffffffffffffffffffffffffffff191681526020016000815260200161143861143e565b81525090565b60405180604001604052806060815260200160008152509056fe756e61626c6520746f207472616e73666572416e6443616c6c20746f206f7261636c6568747470733a2f2f6d696e2d6170692e63727970746f636f6d706172652e636f6d2f646174612f70726963653f536f75726365206d75737420626520746865206f7261636c65206f66207468652072657175657374a2646970667358221220e92b514bc7fc65e6e2894bf7f4cbc5026975c29f7b84e8d6dde8c83292b3c67e64736f6c634300060c0033",
  "immutableReferences": {},
  "source": "/** This example code is designed to quickly deploy an example contract using Remix.\n *  If you have never used Remix, try our example walkthrough: https://docs.chain.link/docs/example-walkthrough\n *  You will need testnet ETH and LINK.\n *     - Kovan ETH faucet: https://faucet.kovan.network/\n *     - Kovan LINK faucet: https://kovan.chain.link/\n */\n\npragma solidity >=0.6.0;\n\nimport \"@chainlink/contracts/src/v0.6/ChainlinkClient.sol\";\n\ncontract APIConsumer is ChainlinkClient {\n  \n    uint public expectedAmount;\n    uint public action;\n    bool public marketResolved;\n    uint public resultAmount;\n    bool public finalWinner;\n\n    address private oracle;\n    bytes32 private jobId;\n    uint256 private fee;\n    \n    /**\n     * Network: Kovan\n     * Chainlink - 0x2f90A6D021db21e1B2A077c5a37B3C7E75D15b7e\n     * Chainlink - 29fa9aa13bf1468788b7cc4a500a45b8\n     * Fee: 0.1 LINK\n     */\n    constructor() public {\n        setPublicChainlinkToken();\n        oracle = 0x2f90A6D021db21e1B2A077c5a37B3C7E75D15b7e;\n        jobId = \"29fa9aa13bf1468788b7cc4a500a45b8\";\n        fee = 0.1 * 10 ** 18; // 0.1 LINK\n        marketResolved = false;\n    }\n    \n    /**\n     * Create a Chainlink request to retrieve API response, find the target\n     * data, then multiply by 1000000000000000000 (to remove decimal places from data).\n     */\n    function requestVolumeData(string memory token1, string memory token2, uint _action, uint _expectedAmount) public returns (bytes32 requestId) \n    {\n        Chainlink.Request memory request = buildChainlinkRequest(jobId, address(this), this.fulfill.selector);\n        \n        // Set the URL to perform the GET request on\n        request.add(\"get\", string((abi.encodePacked(\"https://min-api.cryptocompare.com/data/price?\", string(abi.encodePacked(\"fsym=\",token1)), string(abi.encodePacked(\"&tsyms=\",token2))))));\n        request.add(\"path\", \"USD\");\n        // Multiply the result by 1000000000000000000 to remove decimals\n        int timesAmount = 10**18;\n        request.addInt(\"times\", timesAmount);\n        action = _action;\n        expectedAmount = _expectedAmount;\n        // Sends the request\n        return sendChainlinkRequestTo(oracle, request, fee);\n    }\n    \n    /**\n     * Receive the response in the form of uint256\n     */ \n    function fulfill(bytes32 _requestId, uint256 _volume) public recordChainlinkFulfillment(_requestId)\n    {\n        resultAmount = _volume;\n        marketResolved = true;\n        if(action == 0) {\n            finalWinner = expectedAmount * (10**18) > resultAmount;\n        } else if (action == 1) {\n            finalWinner = expectedAmount * (10**18) < resultAmount;\n        } else {\n            finalWinner = expectedAmount * (10**18) == resultAmount;\n        }\n    }\n    \n    /**\n     * Withdraw LINK from this contract\n     * \n     * NOTE: DO NOT USE THIS IN PRODUCTION AS IT CAN BE CALLED BY ANY ADDRESS.\n     * THIS IS PURELY FOR EXAMPLE PURPOSES ONLY.\n     */\n    function withdrawLink() external {\n        LinkTokenInterface linkToken = LinkTokenInterface(chainlinkTokenAddress());\n        require(linkToken.transfer(msg.sender, linkToken.balanceOf(address(this))), \"Unable to transfer\");\n    }\n}",
  "sourcePath": "/home/kuldeep/ETHEREUM/consensys-final-project/cricket-prediction-market/contracts/PriceAPI.sol",
  "compiler": {
    "name": "solc",
    "version": "0.6.12+commit.27d51765.Emscripten.clang"
  },
  "schemaVersion": "3.2.5",
  "updatedAt": "2020-12-27T11:53:51.469Z",
  "devdoc": {
    "kind": "dev",
    "methods": {},
    "version": 1
  },
  "userdoc": {
    "kind": "user",
    "methods": {
      "constructor": "Network: Kovan Chainlink - 0x2f90A6D021db21e1B2A077c5a37B3C7E75D15b7e Chainlink - 29fa9aa13bf1468788b7cc4a500a45b8 Fee: 0.1 LINK",
      "fulfill(bytes32,uint256)": {
        "notice": "Receive the response in the form of uint256"
      },
      "requestVolumeData(string,string,uint256,uint256)": {
        "notice": "Create a Chainlink request to retrieve API response, find the target data, then multiply by 1000000000000000000 (to remove decimal places from data)."
      },
      "withdrawLink()": {
        "notice": "Withdraw LINK from this contract  NOTE: DO NOT USE THIS IN PRODUCTION AS IT CAN BE CALLED BY ANY ADDRESS. THIS IS PURELY FOR EXAMPLE PURPOSES ONLY."
      }
    },
    "version": 1
  }
}