{
  "contractName": "Market",
  "abi": [
    {
      "inputs": [
        {
          "internalType": "address",
          "name": "owner",
          "type": "address"
        },
        {
          "internalType": "string",
          "name": "token1",
          "type": "string"
        },
        {
          "internalType": "string",
          "name": "token2",
          "type": "string"
        },
        {
          "internalType": "enum IMarket.Action",
          "name": "action",
          "type": "uint8"
        },
        {
          "internalType": "uint256",
          "name": "amount",
          "type": "uint256"
        },
        {
          "internalType": "uint256",
          "name": "interval",
          "type": "uint256"
        }
      ],
      "stateMutability": "nonpayable",
      "type": "constructor"
    },
    {
      "anonymous": false,
      "inputs": [
        {
          "indexed": true,
          "internalType": "bytes32",
          "name": "id",
          "type": "bytes32"
        }
      ],
      "name": "ChainlinkCancelled",
      "type": "event"
    },
    {
      "anonymous": false,
      "inputs": [
        {
          "indexed": true,
          "internalType": "bytes32",
          "name": "id",
          "type": "bytes32"
        }
      ],
      "name": "ChainlinkFulfilled",
      "type": "event"
    },
    {
      "anonymous": false,
      "inputs": [
        {
          "indexed": true,
          "internalType": "bytes32",
          "name": "id",
          "type": "bytes32"
        }
      ],
      "name": "ChainlinkRequested",
      "type": "event"
    },
    {
      "anonymous": false,
      "inputs": [
        {
          "indexed": true,
          "internalType": "address",
          "name": "user",
          "type": "address"
        },
        {
          "indexed": false,
          "internalType": "bool",
          "name": "verdict",
          "type": "bool"
        },
        {
          "indexed": false,
          "internalType": "uint256",
          "name": "share",
          "type": "uint256"
        }
      ],
      "name": "predicted",
      "type": "event"
    },
    {
      "anonymous": false,
      "inputs": [
        {
          "indexed": true,
          "internalType": "address",
          "name": "market",
          "type": "address"
        },
        {
          "indexed": false,
          "internalType": "address",
          "name": "user",
          "type": "address"
        }
      ],
      "name": "resultDeclared",
      "type": "event"
    },
    {
      "anonymous": false,
      "inputs": [
        {
          "indexed": true,
          "internalType": "address",
          "name": "user",
          "type": "address"
        },
        {
          "indexed": false,
          "internalType": "uint256",
          "name": "amount",
          "type": "uint256"
        }
      ],
      "name": "withdrawAmount",
      "type": "event"
    },
    {
      "inputs": [],
      "name": "action",
      "outputs": [
        {
          "internalType": "uint256",
          "name": "",
          "type": "uint256"
        }
      ],
      "stateMutability": "view",
      "type": "function"
    },
    {
      "inputs": [],
      "name": "expectedAmount",
      "outputs": [
        {
          "internalType": "uint256",
          "name": "",
          "type": "uint256"
        }
      ],
      "stateMutability": "view",
      "type": "function"
    },
    {
      "inputs": [],
      "name": "finalWinner",
      "outputs": [
        {
          "internalType": "bool",
          "name": "",
          "type": "bool"
        }
      ],
      "stateMutability": "view",
      "type": "function"
    },
    {
      "inputs": [
        {
          "internalType": "bytes32",
          "name": "_requestId",
          "type": "bytes32"
        },
        {
          "internalType": "uint256",
          "name": "_volume",
          "type": "uint256"
        }
      ],
      "name": "fulfill",
      "outputs": [],
      "stateMutability": "nonpayable",
      "type": "function"
    },
    {
      "inputs": [],
      "name": "marketOwner",
      "outputs": [
        {
          "internalType": "address",
          "name": "",
          "type": "address"
        }
      ],
      "stateMutability": "view",
      "type": "function"
    },
    {
      "inputs": [],
      "name": "marketResolved",
      "outputs": [
        {
          "internalType": "bool",
          "name": "",
          "type": "bool"
        }
      ],
      "stateMutability": "view",
      "type": "function"
    },
    {
      "inputs": [
        {
          "internalType": "address",
          "name": "",
          "type": "address"
        }
      ],
      "name": "predictions",
      "outputs": [
        {
          "internalType": "uint256",
          "name": "share",
          "type": "uint256"
        },
        {
          "internalType": "bool",
          "name": "verdict",
          "type": "bool"
        }
      ],
      "stateMutability": "view",
      "type": "function"
    },
    {
      "inputs": [
        {
          "internalType": "string",
          "name": "token1",
          "type": "string"
        },
        {
          "internalType": "string",
          "name": "token2",
          "type": "string"
        },
        {
          "internalType": "uint256",
          "name": "_action",
          "type": "uint256"
        },
        {
          "internalType": "uint256",
          "name": "_expectedAmount",
          "type": "uint256"
        }
      ],
      "name": "requestVolumeData",
      "outputs": [
        {
          "internalType": "bytes32",
          "name": "requestId",
          "type": "bytes32"
        }
      ],
      "stateMutability": "nonpayable",
      "type": "function"
    },
    {
      "inputs": [],
      "name": "resultAmount",
      "outputs": [
        {
          "internalType": "uint256",
          "name": "",
          "type": "uint256"
        }
      ],
      "stateMutability": "view",
      "type": "function"
    },
    {
      "inputs": [],
      "name": "stopped",
      "outputs": [
        {
          "internalType": "bool",
          "name": "",
          "type": "bool"
        }
      ],
      "stateMutability": "view",
      "type": "function"
    },
    {
      "inputs": [],
      "name": "withdrawLink",
      "outputs": [],
      "stateMutability": "nonpayable",
      "type": "function"
    },
    {
      "inputs": [],
      "name": "getMarket",
      "outputs": [
        {
          "components": [
            {
              "internalType": "enum IMarket.State",
              "name": "state",
              "type": "uint8"
            },
            {
              "internalType": "string",
              "name": "token1",
              "type": "string"
            },
            {
              "internalType": "string",
              "name": "token2",
              "type": "string"
            },
            {
              "internalType": "uint256",
              "name": "amount",
              "type": "uint256"
            },
            {
              "internalType": "enum IMarket.Action",
              "name": "action",
              "type": "uint8"
            },
            {
              "internalType": "uint256",
              "name": "startTime",
              "type": "uint256"
            },
            {
              "internalType": "uint256",
              "name": "interval",
              "type": "uint256"
            },
            {
              "internalType": "uint256",
              "name": "endTime",
              "type": "uint256"
            },
            {
              "internalType": "uint256",
              "name": "totalVotes",
              "type": "uint256"
            },
            {
              "internalType": "uint256",
              "name": "yesVotes",
              "type": "uint256"
            },
            {
              "internalType": "uint256",
              "name": "noVotes",
              "type": "uint256"
            },
            {
              "internalType": "uint256",
              "name": "yesPrice",
              "type": "uint256"
            },
            {
              "internalType": "uint256",
              "name": "noPrice",
              "type": "uint256"
            },
            {
              "internalType": "bool",
              "name": "result",
              "type": "bool"
            },
            {
              "internalType": "uint256",
              "name": "totalBet",
              "type": "uint256"
            }
          ],
          "internalType": "struct IMarket.MarketDetails",
          "name": "",
          "type": "tuple"
        }
      ],
      "stateMutability": "nonpayable",
      "type": "function"
    },
    {
      "inputs": [
        {
          "internalType": "bool",
          "name": "_verdict",
          "type": "bool"
        },
        {
          "internalType": "uint256",
          "name": "_share",
          "type": "uint256"
        }
      ],
      "name": "predict",
      "outputs": [
        {
          "internalType": "bool",
          "name": "",
          "type": "bool"
        }
      ],
      "stateMutability": "payable",
      "type": "function"
    },
    {
      "inputs": [],
      "name": "result",
      "outputs": [
        {
          "internalType": "bool",
          "name": "",
          "type": "bool"
        }
      ],
      "stateMutability": "nonpayable",
      "type": "function"
    },
    {
      "inputs": [],
      "name": "withdraw",
      "outputs": [
        {
          "internalType": "bool",
          "name": "",
          "type": "bool"
        }
      ],
      "stateMutability": "nonpayable",
      "type": "function"
    },
    {
      "inputs": [],
      "name": "circuitBreakerStop",
      "outputs": [
        {
          "internalType": "bool",
          "name": "",
          "type": "bool"
        }
      ],
      "stateMutability": "nonpayable",
      "type": "function"
    }
  ],
  "bytecode": "0x608060405260016005556000602060006101000a81548160ff0219169083151502179055503480156200003157600080fd5b50604051620040a1380380620040a18339818101604052810190620000579190620004b9565b60016000819055506200006f6200025a60201b60201c565b732f90a6d021db21e1b2a077c5a37b3c7e75d15b7e600b60016101000a81548173ffffffffffffffffffffffffffffffffffffffff021916908373ffffffffffffffffffffffffffffffffffffffff1602179055507f3239666139616131336266313436383738386237636334613530306134356238600c8190555067016345785d8a0000600d819055506000600960006101000a81548160ff02191690831515021790555085600e60006101000a81548173ffffffffffffffffffffffffffffffffffffffff021916908373ffffffffffffffffffffffffffffffffffffffff1602179055506000600f60000160006101000a81548160ff021916908360018111156200017957fe5b021790555084600f60010190805190602001906200019992919062000346565b5083600f6002019080519060200190620001b592919062000346565b5081600f6003018190555082600f60040160006101000a81548160ff02191690836002811115620001e257fe5b021790555042600f6005018190555080600f6006018190555080600f6005015401600f600701819055506000600f600801819055506000600f600901819055506000600f600a01819055506032600f600b01819055506032600f600c01819055506000600f600e018190555050505050505062000695565b6200030073c89bd4e1632d3a43cb03aaad5262cbe4038bc57173ffffffffffffffffffffffffffffffffffffffff166338cc48316040518163ffffffff1660e01b815260040160206040518083038186803b158015620002b957600080fd5b505afa158015620002ce573d6000803e3d6000fd5b505050506040513d601f19601f82011682018060405250810190620002f491906200048d565b6200030260201b60201c565b565b80600360006101000a81548173ffffffffffffffffffffffffffffffffffffffff021916908373ffffffffffffffffffffffffffffffffffffffff16021790555050565b828054600181600116156101000203166002900490600052602060002090601f016020900481019282601f106200038957805160ff1916838001178555620003ba565b82800160010185558215620003ba579182015b82811115620003b95782518255916020019190600101906200039c565b5b509050620003c99190620003cd565b5090565b5b80821115620003e8576000816000905550600101620003ce565b5090565b600081519050620003fd8162000650565b92915050565b60008151905062000414816200066a565b92915050565b600082601f8301126200042c57600080fd5b8151620004436200043d82620005af565b62000581565b915080825260208301602083018583830111156200046057600080fd5b6200046d8382846200061a565b50505092915050565b60008151905062000487816200067b565b92915050565b600060208284031215620004a057600080fd5b6000620004b084828501620003ec565b91505092915050565b60008060008060008060c08789031215620004d357600080fd5b6000620004e389828a01620003ec565b965050602087015167ffffffffffffffff8111156200050157600080fd5b6200050f89828a016200041a565b955050604087015167ffffffffffffffff8111156200052d57600080fd5b6200053b89828a016200041a565b94505060606200054e89828a0162000403565b93505060806200056189828a0162000476565b92505060a06200057489828a0162000476565b9150509295509295509295565b6000604051905081810181811067ffffffffffffffff82111715620005a557600080fd5b8060405250919050565b600067ffffffffffffffff821115620005c757600080fd5b601f19601f8301169050602081019050919050565b6000620005e982620005f0565b9050919050565b600073ffffffffffffffffffffffffffffffffffffffff82169050919050565b6000819050919050565b60005b838110156200063a5780820151818401526020810190506200061d565b838111156200064a576000848401525b50505050565b6200065b81620005dc565b81146200066757600080fd5b50565b600381106200067857600080fd5b50565b620006868162000610565b81146200069257600080fd5b50565b6139fc80620006a56000396000f3fe6080604052600436106100f35760003560e01c806347d90b5c1161008a5780638dc654a2116100595780638dc654a21461030d578063902a24f114610324578063b19ccbf214610361578063f1be167914610391576100f3565b806347d90b5c14610261578063653721471461028c57806375f12b21146102b7578063853fd421146102e2576100f3565b80632feef2ec116100c65780632feef2ec146101a457806335fa61fa146101cf5780633ccfd60b1461020d5780634357855e14610238576100f3565b80630a7a1c4d146100f85780631a29fc80146101235780631e0419d41461014e5780632937ce8014610179575b600080fd5b34801561010457600080fd5b5061010d6103bc565b60405161011a91906136af565b60405180910390f35b34801561012f57600080fd5b506101386103c2565b60405161014591906136af565b60405180910390f35b34801561015a57600080fd5b506101636103c8565b60405161017091906133ce565b60405180910390f35b34801561018557600080fd5b5061018e6103db565b60405161019b91906133ce565b60405180910390f35b3480156101b057600080fd5b506101b9610455565b6040516101c691906136af565b60405180910390f35b3480156101db57600080fd5b506101f660048036038101906101f19190612772565b61045b565b6040516102049291906136ca565b60405180910390f35b34801561021957600080fd5b5061022261048c565b60405161022f91906133ce565b60405180910390f35b34801561024457600080fd5b5061025f600480360381019061025a9190612800565b610972565b005b34801561026d57600080fd5b50610276610b3e565b60405161028391906132ac565b60405180910390f35b34801561029857600080fd5b506102a1610b64565b6040516102ae91906133ce565b60405180910390f35b3480156102c357600080fd5b506102cc611208565b6040516102d991906133ce565b60405180910390f35b3480156102ee57600080fd5b506102f761121b565b60405161030491906133ce565b60405180910390f35b34801561031957600080fd5b5061032261122e565b005b34801561033057600080fd5b5061034b6004803603810190610346919061283c565b611391565b6040516103589190613412565b60405180910390f35b61037b600480360381019061037691906127c4565b611579565b60405161038891906133ce565b60405180910390f35b34801561039d57600080fd5b506103a6611a1e565b6040516103b3919061368d565b60405180910390f35b60085481565b600a5481565b600b60009054906101000a900460ff1681565b6000600e60009054906101000a900473ffffffffffffffffffffffffffffffffffffffff1673ffffffffffffffffffffffffffffffffffffffff163373ffffffffffffffffffffffffffffffffffffffff161461043757600080fd5b6001602060006101000a81548160ff02191690831515021790555090565b60075481565b601e6020528060005260406000206000915090508060000154908060010160009054906101000a900460ff16905082565b600042600f60070154106104d5576040517f08c379a00000000000000000000000000000000000000000000000000000000081526004016104cc9061344d565b60405180910390fd5b6001808111156104e157fe5b600f60000160009054906101000a900460ff1660018111156104ff57fe5b1461053f576040517f08c379a00000000000000000000000000000000000000000000000000000000081526004016105369061342d565b60405180910390fd5b60011515600960009054906101000a900460ff1615151461055f57600080fd5b600260005414156105a5576040517f08c379a000000000000000000000000000000000000000000000000000000000815260040161059c9061364d565b60405180910390fd5b6002600081905550602060009054906101000a900460ff166105fc576040517f08c379a00000000000000000000000000000000000000000000000000000000081526004016105f39061350d565b60405180910390fd5b601f60003373ffffffffffffffffffffffffffffffffffffffff1673ffffffffffffffffffffffffffffffffffffffff16815260200190815260200160002060009054906101000a900460ff16610688576040517f08c379a000000000000000000000000000000000000000000000000000000000815260040161067f906134cd565b60405180910390fd5b6000601e60003373ffffffffffffffffffffffffffffffffffffffff1673ffffffffffffffffffffffffffffffffffffffff16815260200190815260200160002060000154141561070e576040517f08c379a00000000000000000000000000000000000000000000000000000000081526004016107059061358d565b60405180910390fd5b61071661256f565b601e60003373ffffffffffffffffffffffffffffffffffffffff1673ffffffffffffffffffffffffffffffffffffffff168152602001908152602001600020604051806040016040529081600082015481526020016001820160009054906101000a900460ff161515151581525050905080602001511515600b60009054906101000a900460ff161515146107e0576040517f08c379a00000000000000000000000000000000000000000000000000000000081526004016107d79061362d565b60405180910390fd5b6000600b60009054906101000a900460ff161561081b57610814600f60090154600f600e0154611c5690919063ffffffff16565b905061083b565b610838600f600a0154600f600e0154611c5690919063ffffffff16565b90505b6000601e60003373ffffffffffffffffffffffffffffffffffffffff1673ffffffffffffffffffffffffffffffffffffffff168152602001908152602001600020600001819055506000819050804710156108cb576040517f08c379a00000000000000000000000000000000000000000000000000000000081526004016108c29061356d565b60405180910390fd5b3373ffffffffffffffffffffffffffffffffffffffff166108fc829081150290604051600060405180830381858888f19350505050158015610911573d6000803e3d6000fd5b503373ffffffffffffffffffffffffffffffffffffffff167f736fe5656fcd35d9d20cbd1c42f7f6256ee31aea93b61054d47141c4927e220a8260405161095891906136af565b60405180910390a260019350505050600160008190555090565b816006600082815260200190815260200160002060009054906101000a900473ffffffffffffffffffffffffffffffffffffffff1673ffffffffffffffffffffffffffffffffffffffff163373ffffffffffffffffffffffffffffffffffffffff1614610a14576040517f08c379a0000000000000000000000000000000000000000000000000000000008152600401610a0b9061360d565b60405180910390fd5b6006600082815260200190815260200160002060006101000a81549073ffffffffffffffffffffffffffffffffffffffff0219169055807f7cc135e0cebb02c3480ae5d74d377283180a2601f8f644edf7987b009316c63a60405160405180910390a281600a819055506001600960006101000a81548160ff02191690831515021790555060006008541415610ad357600a54670de0b6b3a76400006007540211600b60006101000a81548160ff021916908315150217905550610b39565b60016008541415610b0d57600a54670de0b6b3a76400006007540210600b60006101000a81548160ff021916908315150217905550610b38565b600a54670de0b6b3a76400006007540214600b60006101000a81548160ff0219169083151502179055505b5b505050565b600e60009054906101000a900473ffffffffffffffffffffffffffffffffffffffff1681565b600042600f6007015410610bad576040517f08c379a0000000000000000000000000000000000000000000000000000000008152600401610ba49061344d565b60405180910390fd5b60006001811115610bba57fe5b600f60000160009054906101000a900460ff166001811115610bd857fe5b14610c18576040517f08c379a0000000000000000000000000000000000000000000000000000000008152600401610c0f9061354d565b60405180910390fd5b60001515600960009054906101000a900460ff16151514610c3857600080fd5b600e60009054906101000a900473ffffffffffffffffffffffffffffffffffffffff1673ffffffffffffffffffffffffffffffffffffffff163373ffffffffffffffffffffffffffffffffffffffff161480610cdd5750601f60003373ffffffffffffffffffffffffffffffffffffffff1673ffffffffffffffffffffffffffffffffffffffff16815260200190815260200160002060009054906101000a900460ff165b610d1c576040517f08c379a0000000000000000000000000000000000000000000000000000000008152600401610d13906134cd565b60405180910390fd5b60006002811115610d2957fe5b600f60040160009054906101000a900460ff166002811115610d4757fe5b1415610e9f57610e99600f6001018054600181600116156101000203166002900480601f016020809104026020016040519081016040528092919081815260200182805460018160011615610100020316600290048015610de95780601f10610dbe57610100808354040283529160200191610de9565b820191906000526020600020905b815481529060010190602001808311610dcc57829003601f168201915b5050505050600f6002018054600181600116156101000203166002900480601f016020809104026020016040519081016040528092919081815260200182805460018160011615610100020316600290048015610e875780601f10610e5c57610100808354040283529160200191610e87565b820191906000526020600020905b815481529060010190602001808311610e6a57829003601f168201915b50505050506000600f60030154611391565b50611171565b60016002811115610eac57fe5b600f60040160009054906101000a900460ff166002811115610eca57fe5b14156110225761101c600f6001018054600181600116156101000203166002900480601f016020809104026020016040519081016040528092919081815260200182805460018160011615610100020316600290048015610f6c5780601f10610f4157610100808354040283529160200191610f6c565b820191906000526020600020905b815481529060010190602001808311610f4f57829003601f168201915b5050505050600f6002018054600181600116156101000203166002900480601f01602080910402602001604051908101604052809291908181526020018280546001816001161561010002031660029004801561100a5780601f10610fdf5761010080835404028352916020019161100a565b820191906000526020600020905b815481529060010190602001808311610fed57829003601f168201915b50505050506001600f60030154611391565b50611170565b61116e600f6001018054600181600116156101000203166002900480601f0160208091040260200160405190810160405280929190818152602001828054600181600116156101000203166002900480156110be5780601f10611093576101008083540402835291602001916110be565b820191906000526020600020905b8154815290600101906020018083116110a157829003601f168201915b5050505050600f6002018054600181600116156101000203166002900480601f01602080910402602001604051908101604052809291908181526020018280546001816001161561010002031660029004801561115c5780601f106111315761010080835404028352916020019161115c565b820191906000526020600020905b81548152906001019060200180831161113f57829003601f168201915b50505050506002600f60030154611391565b505b5b6001600f60000160006101000a81548160ff0219169083600181111561119357fe5b02179055506001602060006101000a81548160ff0219169083151502179055503073ffffffffffffffffffffffffffffffffffffffff167fd0ac939165b7c58d3e538fc6805c054dc52f8ecc700d7b57821247cf4268640f336040516111f991906132c7565b60405180910390a26001905090565b602060009054906101000a900460ff1681565b600960009054906101000a900460ff1681565b6000611238611cb2565b90508073ffffffffffffffffffffffffffffffffffffffff1663a9059cbb338373ffffffffffffffffffffffffffffffffffffffff166370a08231306040518263ffffffff1660e01b815260040161129091906132ac565b60206040518083038186803b1580156112a857600080fd5b505afa1580156112bc573d6000803e3d6000fd5b505050506040513d601f19601f820116820180604052508101906112e091906128cf565b6040518363ffffffff1660e01b81526004016112fd9291906132e2565b602060405180830381600087803b15801561131757600080fd5b505af115801561132b573d6000803e3d6000fd5b505050506040513d601f19601f8201168201806040525081019061134f919061279b565b61138e576040517f08c379a0000000000000000000000000000000000000000000000000000000008152600401611385906135ad565b60405180910390fd5b50565b600061139b61258b565b6113af600c5430634357855e60e01b611cdc565b905061145a6040518060400160405280600381526020017f6765740000000000000000000000000000000000000000000000000000000000815250876040516020016113fb919061325b565b6040516020818303038152906040528760405160200161141b9190613239565b60405160208183030381529060405260405160200161143b92919061327d565b60405160208183030381529060405283611d0d9092919063ffffffff16565b6114d96040518060400160405280600481526020017f70617468000000000000000000000000000000000000000000000000000000008152506040518060400160405280600381526020017f555344000000000000000000000000000000000000000000000000000000000081525083611d0d9092919063ffffffff16565b6000670de0b6b3a764000090506115306040518060400160405280600581526020017f74696d65730000000000000000000000000000000000000000000000000000008152508284611d409092919063ffffffff16565b846008819055508360078190555061156d600b60019054906101000a900473ffffffffffffffffffffffffffffffffffffffff1683600d54611d73565b92505050949350505050565b600042600f6007015410156115c3576040517f08c379a00000000000000000000000000000000000000000000000000000000081526004016115ba906134ed565b60405180910390fd5b602060009054906101000a900460ff1615611613576040517f08c379a000000000000000000000000000000000000000000000000000000000815260040161160a9061346d565b60405180910390fd5b60001515601f60003373ffffffffffffffffffffffffffffffffffffffff1673ffffffffffffffffffffffffffffffffffffffff16815260200190815260200160002060009054906101000a900460ff161515146116a6576040517f08c379a000000000000000000000000000000000000000000000000000000000815260040161169d906135ed565b60405180910390fd5b821561170b57346116c583600f600b0154611f3d90919063ffffffff16565b1115611706576040517f08c379a00000000000000000000000000000000000000000000000000000000081526004016116fd9061366d565b60405180910390fd5b611766565b3461172483600f600c0154611f3d90919063ffffffff16565b1115611765576040517f08c379a000000000000000000000000000000000000000000000000000000000815260040161175c9061366d565b60405180910390fd5b5b61177f6001600f60080154611fad90919063ffffffff16565b600f600801819055508215611827576117a76001600f60090154611fad90919063ffffffff16565b600f600901819055506117e0600f600801546117d26064600f60090154611f3d90919063ffffffff16565b611c5690919063ffffffff16565b600f600b0181905550611819600f6008015461180b6064600f600a0154611f3d90919063ffffffff16565b611c5690919063ffffffff16565b600f600c01819055506118bc565b6118406001600f600a0154611fad90919063ffffffff16565b600f600a0181905550611879600f6008015461186b6064600f600a0154611f3d90919063ffffffff16565b611c5690919063ffffffff16565b600f600c01819055506118b2600f600801546118a46064600f60090154611f3d90919063ffffffff16565b611c5690919063ffffffff16565b600f600b01819055505b6118c461256f565b6040518060400160405280848152602001851515815250905080601e60003373ffffffffffffffffffffffffffffffffffffffff1673ffffffffffffffffffffffffffffffffffffffff1681526020019081526020016000206000820151816000015560208201518160010160006101000a81548160ff0219169083151502179055509050506001601f60003373ffffffffffffffffffffffffffffffffffffffff1673ffffffffffffffffffffffffffffffffffffffff16815260200190815260200160002060006101000a81548160ff0219169083151502179055506119ba34600f600e0154611fad90919063ffffffff16565b600f600e01819055503373ffffffffffffffffffffffffffffffffffffffff167fd6b6c4630e01992c8bbd816cee0f84c0ca39b71a8c774b762833fda84b53676f8585604051611a0b9291906133e9565b60405180910390a2600191505092915050565b611a266125f8565b600f604051806101e00160405290816000820160009054906101000a900460ff166001811115611a5257fe5b6001811115611a5d57fe5b8152602001600182018054600181600116156101000203166002900480601f016020809104026020016040519081016040528092919081815260200182805460018160011615610100020316600290048015611afa5780601f10611acf57610100808354040283529160200191611afa565b820191906000526020600020905b815481529060010190602001808311611add57829003601f168201915b50505050508152602001600282018054600181600116156101000203166002900480601f016020809104026020016040519081016040528092919081815260200182805460018160011615610100020316600290048015611b9c5780601f10611b7157610100808354040283529160200191611b9c565b820191906000526020600020905b815481529060010190602001808311611b7f57829003601f168201915b50505050508152602001600382015481526020016004820160009054906101000a900460ff166002811115611bcd57fe5b6002811115611bd857fe5b81526020016005820154815260200160068201548152602001600782015481526020016008820154815260200160098201548152602001600a8201548152602001600b8201548152602001600c8201548152602001600d820160009054906101000a900460ff16151515158152602001600e82015481525050905090565b6000808211611c9a576040517f08c379a0000000000000000000000000000000000000000000000000000000008152600401611c919061352d565b60405180910390fd5b6000828481611ca557fe5b0490508091505092915050565b6000600360009054906101000a900473ffffffffffffffffffffffffffffffffffffffff16905090565b611ce461258b565b611cec61258b565b611d0385858584612002909392919063ffffffff16565b9150509392505050565b611d248284608001516120b290919063ffffffff16565b611d3b8184608001516120b290919063ffffffff16565b505050565b611d578284608001516120b290919063ffffffff16565b611d6e8184608001516120d790919063ffffffff16565b505050565b600030600554604051602001611d8a92919061320d565b604051602081830303815290604052805190602001209050600554836060018181525050836006600083815260200190815260200160002060006101000a81548173ffffffffffffffffffffffffffffffffffffffff021916908373ffffffffffffffffffffffffffffffffffffffff160217905550807fb5e6e01e79f91267dc17b4e6314d5d4d03593d2ceee0fbb452b750bd70ea5af960405160405180910390a2600360009054906101000a900473ffffffffffffffffffffffffffffffffffffffff1673ffffffffffffffffffffffffffffffffffffffff16634000aea08584611e7687612123565b6040518463ffffffff1660e01b8152600401611e9493929190613390565b602060405180830381600087803b158015611eae57600080fd5b505af1158015611ec2573d6000803e3d6000fd5b505050506040513d601f19601f82011682018060405250810190611ee6919061279b565b611f25576040517f08c379a0000000000000000000000000000000000000000000000000000000008152600401611f1c906134ad565b60405180910390fd5b60016005600082825401925050819055509392505050565b600080831415611f505760009050611fa7565b6000828402905082848281611f6157fe5b0414611fa2576040517f08c379a0000000000000000000000000000000000000000000000000000000008152600401611f99906135cd565b60405180910390fd5b809150505b92915050565b600080828401905083811015611ff8576040517f08c379a0000000000000000000000000000000000000000000000000000000008152600401611fef9061348d565b60405180910390fd5b8091505092915050565b61200a61258b565b61201a85608001516101006121ca565b508385600001818152505082856020019073ffffffffffffffffffffffffffffffffffffffff16908173ffffffffffffffffffffffffffffffffffffffff16815250508185604001907bffffffffffffffffffffffffffffffffffffffffffffffffffffffff191690817bffffffffffffffffffffffffffffffffffffffffffffffffffffffff191681525050849050949350505050565b6120bf826003835161221e565b6120d2818361236390919063ffffffff16565b505050565b600081126120f0576120eb8260008361221e565b61211f565b61211e826001837fffffffffffffffffffffffffffffffffffffffffffffffffffffffffffffffff0361221e565b5b5050565b6060634042994660e01b6000808460000151856020015186604001518760600151600189608001516000015160405160240161216698979695949392919061330b565b604051602081830303815290604052907bffffffffffffffffffffffffffffffffffffffffffffffffffffffff19166020820180517bffffffffffffffffffffffffffffffffffffffffffffffffffffffff83818316178352505050509050919050565b6121d2612686565b6000602083816121de57fe5b06146121f757602082816121ee57fe5b06602003820191505b81836020018181525050604051808452600081528281016020016040525082905092915050565b6017811161224b576122458160058460ff16901b60ff16178461238590919063ffffffff16565b5061235e565b60ff811161228d57612270601860058460ff16901b178461238590919063ffffffff16565b50612287816001856123a59092919063ffffffff16565b5061235d565b61ffff81116122d0576122b3601960058460ff16901b178461238590919063ffffffff16565b506122ca816002856123a59092919063ffffffff16565b5061235c565b63ffffffff8111612315576122f8601a60058460ff16901b178461238590919063ffffffff16565b5061230f816004856123a59092919063ffffffff16565b5061235b565b67ffffffffffffffff811161235a57612341601b60058460ff16901b178461238590919063ffffffff16565b50612358816008856123a59092919063ffffffff16565b505b5b5b5b5b505050565b61236b612686565b61237d838460000151518485516123c7565b905092915050565b61238d612686565b61239d8384600001515184612480565b905092915050565b6123ad612686565b6123be8485600001515185856124ce565b90509392505050565b6123cf612686565b82518211156123dd57600080fd5b8460200151828501111561240857612407856002612401886020015188870161252f565b0261254b565b5b6000808651805187602083010193508088870111156124275787860182525b60208701925050505b602084106124535780518252602082019150602081019050602084039350612430565b60006001856020036101000a03905080198251168184511681811785525050879350505050949350505050565b612488612686565b836020015183106124a5576124a484600286602001510261254b565b5b83518051602085830101848153818614156124c1576001820183525b5050508390509392505050565b6124d6612686565b846020015184830111156124f4576124f38560028685010261254b565b5b60006001836101000a03905085518386820101858319825116178152815185880111156125215784870182525b505085915050949350505050565b60008183111561254157829050612545565b8190505b92915050565b60608260000151905061255e83836121ca565b506125698382612363565b50505050565b6040518060400160405280600081526020016000151581525090565b6040518060a0016040528060008019168152602001600073ffffffffffffffffffffffffffffffffffffffff16815260200160007bffffffffffffffffffffffffffffffffffffffffffffffffffffffff19168152602001600081526020016125f2612686565b81525090565b604051806101e001604052806000600181111561261157fe5b81526020016060815260200160608152602001600081526020016000600281111561263857fe5b81526020016000815260200160008152602001600081526020016000815260200160008152602001600081526020016000815260200160008152602001600015158152602001600081525090565b604051806040016040528060608152602001600081525090565b6000813590506126af8161396a565b92915050565b6000813590506126c481613981565b92915050565b6000815190506126d981613981565b92915050565b6000813590506126ee81613998565b92915050565b600082601f83011261270557600080fd5b813561271861271382613720565b6136f3565b9150808252602083016020830185838301111561273457600080fd5b61273f8382846138c2565b50505092915050565b600081359050612757816139af565b92915050565b60008151905061276c816139af565b92915050565b60006020828403121561278457600080fd5b6000612792848285016126a0565b91505092915050565b6000602082840312156127ad57600080fd5b60006127bb848285016126ca565b91505092915050565b600080604083850312156127d757600080fd5b60006127e5858286016126b5565b92505060206127f685828601612748565b9150509250929050565b6000806040838503121561281357600080fd5b6000612821858286016126df565b925050602061283285828601612748565b9150509250929050565b6000806000806080858703121561285257600080fd5b600085013567ffffffffffffffff81111561286c57600080fd5b612878878288016126f4565b945050602085013567ffffffffffffffff81111561289557600080fd5b6128a1878288016126f4565b93505060406128b287828801612748565b92505060606128c387828801612748565b91505092959194509250565b6000602082840312156128e157600080fd5b60006128ef8482850161275d565b91505092915050565b61290181613844565b82525050565b612910816137a0565b82525050565b61291f816137b2565b82525050565b61292e816137b2565b82525050565b61293d816137be565b82525050565b61294c816137c8565b82525050565b600061295d8261374c565b6129678185613762565b93506129778185602086016138d1565b61298081613932565b840191505092915050565b61299c61299782613856565b613904565b82525050565b6129ab8161387a565b82525050565b6129ba8161388c565b82525050565b60006129cb82613757565b6129d58185613773565b93506129e58185602086016138d1565b6129ee81613932565b840191505092915050565b6000612a0482613757565b612a0e8185613795565b9350612a1e8185602086016138d1565b80840191505092915050565b6000612a37601a83613784565b91507f4d61726b6574206973206e6f74207265736f6c766564207965740000000000006000830152602082019050919050565b6000612a77600783613795565b91507f267473796d733d000000000000000000000000000000000000000000000000006000830152600782019050919050565b6000612ab7601683613784565b91507f4d61726b6574206973207374696c6c20616374697665000000000000000000006000830152602082019050919050565b6000612af7601483613784565b91507f73746f7070656420696e20656d657267656e63790000000000000000000000006000830152602082019050919050565b6000612b37601b83613784565b91507f536166654d6174683a206164646974696f6e206f766572666c6f7700000000006000830152602082019050919050565b6000612b77602383613784565b91507f756e61626c6520746f207472616e73666572416e6443616c6c20746f206f726160008301527f636c6500000000000000000000000000000000000000000000000000000000006020830152604082019050919050565b6000612bdd600e83613784565b91507f4e6f7420617574686f72697365640000000000000000000000000000000000006000830152602082019050919050565b6000612c1d602a83613784565b91507f4d61726b6574206973206e6f7420616363657074696e6720707265646963746960008301527f6f6e20616e796d6f7265000000000000000000000000000000000000000000006020830152604082019050919050565b6000612c83601183613784565b91507f6f6e6c7920696e20656d657267656e63790000000000000000000000000000006000830152602082019050919050565b6000612cc3601a83613784565b91507f536166654d6174683a206469766973696f6e206279207a65726f0000000000006000830152602082019050919050565b6000612d03601a83613784565b91507f4d61726b657420697320616c7265616479207265736f6c7665640000000000006000830152602082019050919050565b6000612d43601283613784565b91507f4e6f7420656e6f7567682062616c616e636500000000000000000000000000006000830152602082019050919050565b6000612d83601183613784565b91507f416c72656164792077697468647261776e0000000000000000000000000000006000830152602082019050919050565b6000612dc3600583613795565b91507f6673796d3d0000000000000000000000000000000000000000000000000000006000830152600582019050919050565b6000612e03601283613784565b91507f556e61626c6520746f207472616e7366657200000000000000000000000000006000830152602082019050919050565b6000612e43602183613784565b91507f536166654d6174683a206d756c7469706c69636174696f6e206f766572666c6f60008301527f77000000000000000000000000000000000000000000000000000000000000006020830152604082019050919050565b6000612ea9602c83613784565b91507f596f75206861766520616c72656164792070617274696369706174656420696e60008301527f2074686973206d61726b657400000000000000000000000000000000000000006020830152604082019050919050565b6000612f0f602d83613795565b91507f68747470733a2f2f6d696e2d6170692e63727970746f636f6d706172652e636f60008301527f6d2f646174612f70726963653f000000000000000000000000000000000000006020830152602d82019050919050565b6000612f75602883613784565b91507f536f75726365206d75737420626520746865206f7261636c65206f662074686560008301527f20726571756573740000000000000000000000000000000000000000000000006020830152604082019050919050565b6000612fdb600e83613784565b91507f536f72727920796f75206c6f73740000000000000000000000000000000000006000830152602082019050919050565b600061301b601f83613784565b91507f5265656e7472616e637947756172643a207265656e7472616e742063616c6c006000830152602082019050919050565b600061305b601183613784565b91507f4e6f7420656e6f75676820616d6f756e740000000000000000000000000000006000830152602082019050919050565b60006101e0830160008301516130a760008601826129b1565b50602083015184820360208601526130bf82826129c0565b915050604083015184820360408601526130d982826129c0565b91505060608301516130ee60608601826131d8565b50608083015161310160808601826129a2565b5060a083015161311460a08601826131d8565b5060c083015161312760c08601826131d8565b5060e083015161313a60e08601826131d8565b5061010083015161314f6101008601826131d8565b506101208301516131646101208601826131d8565b506101408301516131796101408601826131d8565b5061016083015161318e6101608601826131d8565b506101808301516131a36101808601826131d8565b506101a08301516131b86101a0860182612916565b506101c08301516131cd6101c08601826131d8565b508091505092915050565b6131e18161383a565b82525050565b6131f08161383a565b82525050565b6132076132028261383a565b613928565b82525050565b6000613219828561298b565b60148201915061322982846131f6565b6020820191508190509392505050565b600061324482612a6a565b915061325082846129f9565b915081905092915050565b600061326682612db6565b915061327282846129f9565b915081905092915050565b600061328882612f02565b915061329482856129f9565b91506132a082846129f9565b91508190509392505050565b60006020820190506132c16000830184612907565b92915050565b60006020820190506132dc60008301846128f8565b92915050565b60006040820190506132f760008301856128f8565b61330460208301846131e7565b9392505050565b600061010082019050613321600083018b612907565b61332e602083018a6131e7565b61333b6040830189612934565b6133486060830188612907565b6133556080830187612943565b61336260a08301866131e7565b61336f60c08301856131e7565b81810360e08301526133818184612952565b90509998505050505050505050565b60006060820190506133a56000830186612907565b6133b260208301856131e7565b81810360408301526133c48184612952565b9050949350505050565b60006020820190506133e36000830184612925565b92915050565b60006040820190506133fe6000830185612925565b61340b60208301846131e7565b9392505050565b60006020820190506134276000830184612934565b92915050565b6000602082019050818103600083015261344681612a2a565b9050919050565b6000602082019050818103600083015261346681612aaa565b9050919050565b6000602082019050818103600083015261348681612aea565b9050919050565b600060208201905081810360008301526134a681612b2a565b9050919050565b600060208201905081810360008301526134c681612b6a565b9050919050565b600060208201905081810360008301526134e681612bd0565b9050919050565b6000602082019050818103600083015261350681612c10565b9050919050565b6000602082019050818103600083015261352681612c76565b9050919050565b6000602082019050818103600083015261354681612cb6565b9050919050565b6000602082019050818103600083015261356681612cf6565b9050919050565b6000602082019050818103600083015261358681612d36565b9050919050565b600060208201905081810360008301526135a681612d76565b9050919050565b600060208201905081810360008301526135c681612df6565b9050919050565b600060208201905081810360008301526135e681612e36565b9050919050565b6000602082019050818103600083015261360681612e9c565b9050919050565b6000602082019050818103600083015261362681612f68565b9050919050565b6000602082019050818103600083015261364681612fce565b9050919050565b600060208201905081810360008301526136668161300e565b9050919050565b600060208201905081810360008301526136868161304e565b9050919050565b600060208201905081810360008301526136a7818461308e565b905092915050565b60006020820190506136c460008301846131e7565b92915050565b60006040820190506136df60008301856131e7565b6136ec6020830184612925565b9392505050565b6000604051905081810181811067ffffffffffffffff8211171561371657600080fd5b8060405250919050565b600067ffffffffffffffff82111561373757600080fd5b601f19601f8301169050602081019050919050565b600081519050919050565b600081519050919050565b600082825260208201905092915050565b600082825260208201905092915050565b600082825260208201905092915050565b600081905092915050565b60006137ab8261381a565b9050919050565b60008115159050919050565b6000819050919050565b60007fffffffff0000000000000000000000000000000000000000000000000000000082169050919050565b600081905061380282613950565b919050565b60008190506138158261395d565b919050565b600073ffffffffffffffffffffffffffffffffffffffff82169050919050565b6000819050919050565b600061384f8261389e565b9050919050565b600061386182613868565b9050919050565b60006138738261381a565b9050919050565b6000613885826137f4565b9050919050565b600061389782613807565b9050919050565b60006138a9826138b0565b9050919050565b60006138bb8261381a565b9050919050565b82818337600083830152505050565b60005b838110156138ef5780820151818401526020810190506138d4565b838111156138fe576000848401525b50505050565b600061390f82613916565b9050919050565b600061392182613943565b9050919050565b6000819050919050565b6000601f19601f8301169050919050565b60008160601b9050919050565b6003811061395a57fe5b50565b6002811061396757fe5b50565b613973816137a0565b811461397e57600080fd5b50565b61398a816137b2565b811461399557600080fd5b50565b6139a1816137be565b81146139ac57600080fd5b50565b6139b88161383a565b81146139c357600080fd5b5056fea2646970667358221220e181564d9c06eeef6765cd72752250f1d80fcc09ddbdca3c825683b6041cb68264736f6c634300060c0033",
  "immutableReferences": {},
  "source": "pragma solidity >=0.6.0;\npragma experimental ABIEncoderV2;\nimport './PriceAPI.sol';\n// import \"@openzeppelin/contracts/math/SafeMath.sol\";\nimport \"@openzeppelin/contracts/utils/ReentrancyGuard.sol\";\n\n/// @title Interface for Market Contract\n/// @author Kuldeep K Srivastava\ninterface IMarket {\n    \n    enum Action {lt, gt, eq}\n    enum State {active, inactive}\n    \n    struct MarketDetails {\n        State state;\n        string token1;\n        string token2;\n        uint amount;\n        Action action;\n        uint startTime;\n        uint interval;\n        uint endTime;\n        uint totalVotes;\n        uint yesVotes;\n        uint noVotes;\n        uint yesPrice;\n        uint noPrice;\n        bool result;\n        uint totalBet;\n    }\n    \n    \n    struct Prediction {\n        uint share;\n        bool verdict;\n    }\n    \n    event predicted(address indexed user, bool verdict, uint share);\n    event resultDeclared(address indexed market, address user);\n    event withdrawAmount(address indexed user, uint amount);\n    \n    //  @notice Get all the current details of the market\n    //  @return Market struct with all the details\n    function getMarket() external returns (MarketDetails memory);\n    \n    //  @notice Allows an end-user to make prediction for the market\n    //  @param _verdict Yes/No selected by end-user\n    //  @param _share Amount of share that user is purchasing for his prediction\n    //  @return Returns true if successful\n    function predict(bool, uint) external payable returns (bool);\n    \n    //  @notice Resolves the market after the market's prediction function is closed\n    //  @return Returns true if successful\n    function result() external returns (bool);\n    \n    //  @notice Allows user to withdraw their winning amount after market is resolved\n    //  @return Returns true if successful\n    function withdraw() external returns (bool);\n    \n}\n\n/// @title Cryptocurrency Price Prediction Market\n/// @dev Inherits IMarket Interface, APIConsumer Contract\n/// @author Kuldeep K. Srivastava\ncontract Market is IMarket,ReentrancyGuard,APIConsumer {\n    \n    // using SafeMath for uint256;\n    \n    //  @notice  Address of the user who created this market\n    //  @return Returns market owner's address\n    address public marketOwner;\n\n    MarketDetails private M;\n    \n    mapping(address => Prediction) public predictions;\n    mapping(address => bool) private predictors;\n    \n    constructor (\n        address owner,\n        string memory token1,\n        string memory token2,\n        Action action,\n        uint amount,\n        uint interval\n    ) public {\n        marketOwner = owner;\n        M.state = State.active;\n        M.token1 = token1;\n        M.token2 = token2;\n        M.amount = amount;\n        M.action = action;\n        M.startTime = block.timestamp;\n        M.interval = interval;\n        M.endTime = M.startTime + interval;\n        M.totalVotes = 0;\n        M.yesVotes = 0;\n        M.noVotes = 0;\n        M.yesPrice = 50 wei;\n        M.noPrice= 50 wei;\n        M.totalBet = 0;\n    }\n    \n    bool public stopped = false;\n\n    modifier stopInEmergency { require(!stopped, \"stopped in emergency\"); _; }\n    \n    modifier onlyInEmergency { require(stopped, \"only in emergency\"); _; }\n    \n    modifier marketActive() {\n        require(M.endTime >= block.timestamp,\"Market is not accepting prediction anymore\");\n        _;\n    }\n    \n    modifier marketInProgress() {\n        require(M.endTime < block.timestamp,\"Market is still active\");\n        require(M.state == State.active,\"Market is already resolved\");\n        require(marketResolved == false);\n        _;\n    }\n    \n    modifier marketInactive() {\n        require(M.endTime < block.timestamp,\"Market is still active\");\n        require(M.state == State.inactive,\"Market is not resolved yet\");\n        require(marketResolved == true);\n        _;\n    }\n \n    //  @notice Get all the current details of the market\n    //  @return Market struct with all the details\n    function getMarket() public override returns (MarketDetails memory) {\n        return M;\n    }\n    \n    //  @notice Allows an end-user to make prediction for the market\n    //  @dev It uses circuit breaker pattern.\n    //  @param _verdict Yes/No selected by end-user\n    //  @param _share Amount of share that user is purchasing for his prediction\n    //  @return Returns true if successful\n    function predict(bool _verdict, uint _share)  public override payable marketActive stopInEmergency returns (bool) {\n        // market not close\n        // not already predicted\n        // amount is correct\n        // create a new predict\n        // add to predictions list\n        // modify yes or no votes and profits\n        // return true\n        // use circuit breaker pattern\n        \n        require(predictors[msg.sender] == false, \"You have already participated in this market\");\n        if(_verdict) {\n            require((M.yesPrice.mul(_share)) <= msg.value, \"Not enough amount\");\n        } else {\n            require((M.noPrice.mul(_share)) <= msg.value, \"Not enough amount\");\n        }\n                \n        M.totalVotes = M.totalVotes.add(1);\n        \n        if(_verdict) {\n            M.yesVotes = M.yesVotes.add(1);\n            M.yesPrice = ((M.yesVotes.mul(10**2)).div(M.totalVotes));\n            M.noPrice = ((M.noVotes.mul(10**2)).div(M.totalVotes)); \n        } else {\n            M.noVotes = M.noVotes.add(1);\n            M.noPrice = ((M.noVotes.mul(10**2)).div(M.totalVotes));\n            M.yesPrice = ((M.yesVotes.mul(10**2)).div(M.totalVotes));\n        }\n        \n        Prediction memory p = Prediction({\n            share:_share,\n            verdict: _verdict\n        });\n        \n        predictions[msg.sender] = p;\n        predictors[msg.sender] = true;\n        M.totalBet = M.totalBet.add(msg.value);\n        emit predicted(msg.sender, _verdict, _share);\n        return true;\n    }\n    \n    //  @notice Resolves the market after the market's prediction function is closed\n    //  @dev It uses chainlink oracle for doing the same.\n    //  @return Returns true if successful\n    function result() public override marketInProgress returns(bool) {\n        // require only owner or one of the depositor\n        // call API\n        // get API response\n        // change result value\n        // change State to inactive\n        require(msg.sender == marketOwner || predictors[msg.sender], \"Not authorised\");\n        if(M.action == Action.lt) {\n            requestVolumeData(M.token1, M.token2, 0 , M.amount);\n        } else if(M.action == Action.gt) {\n            requestVolumeData(M.token1, M.token2, 1, M.amount);\n        } else {\n            requestVolumeData(M.token1, M.token2, 2, M.amount);\n        }\n        M.state = State.inactive;\n        stopped = true;\n        emit resultDeclared(address(this), msg.sender);\n        return true;\n    }\n    \n    //  @notice Allows user to withdraw their winning amount after market is resolved\n    //  @dev It uses withdrawl pattern\n    //  @return Returns true if successful\n    function withdraw() public override marketInactive nonReentrant onlyInEmergency returns(bool) {\n        // withdrawl pattern\n        // check user has deposited\n        // calculate amount to pay\n        // check if enough balance\n        // change share to 0\n        // tranfer eth to the user\n        require(predictors[msg.sender], \"Not authorised\");\n        require(predictions[msg.sender].share != 0, \"Already withdrawn\");\n        Prediction memory p = predictions[msg.sender];\n        require(finalWinner == p.verdict, \"Sorry you lost\");\n        uint winningAmount;\n        if(finalWinner){\n            winningAmount = (M.totalBet).div(M.yesVotes);\n        } else {\n            winningAmount = (M.totalBet).div(M.noVotes);\n        }\n        predictions[msg.sender].share = 0;\n        uint amountToTake = winningAmount;\n        require(address(this).balance >= amountToTake, \"Not enough balance\");\n        msg.sender.transfer(amountToTake);\n        emit withdrawAmount(msg.sender, amountToTake);\n        return true;\n    }\n\n    function circuitBreakerStop() public returns(bool) {\n        require(msg.sender == marketOwner);\n        stopped = true;\n    }\n    \n    // upgradablility\n}",
  "sourcePath": "/home/kuldeep/ETHEREUM/consensys-final-project/cricket-prediction-market/contracts/Market.sol",
  "compiler": {
    "name": "solc",
    "version": "0.6.12+commit.27d51765.Emscripten.clang"
  },
  "schemaVersion": "3.2.5",
  "updatedAt": "2020-12-21T09:08:03.257Z",
  "devdoc": {
    "author": "Kuldeep K. Srivastava",
    "details": "Inherits IMarket Interface, APIConsumer Contract",
    "kind": "dev",
    "methods": {},
    "title": "Cryptocurrency Price Prediction Market",
    "version": 1
  },
  "userdoc": {
    "kind": "user",
    "methods": {
      "fulfill(bytes32,uint256)": {
        "notice": "Receive the response in the form of uint256"
      },
      "requestVolumeData(string,string,uint256,uint256)": {
        "notice": "Create a Chainlink request to retrieve API response, find the target data, then multiply by 1000000000000000000 (to remove decimal places from data)."
      },
      "withdrawLink()": {
        "notice": "Withdraw LINK from this contract  NOTE: DO NOT USE THIS IN PRODUCTION AS IT CAN BE CALLED BY ANY ADDRESS. THIS IS PURELY FOR EXAMPLE PURPOSES ONLY."
      }
    },
    "version": 1
  }
}