{
  "contractName": "PricePredictionMarketFactory",
  "abi": [
    {
      "anonymous": false,
      "inputs": [
        {
          "indexed": true,
          "internalType": "address",
          "name": "",
          "type": "address"
        },
        {
          "indexed": false,
          "internalType": "uint256",
          "name": "endTime",
          "type": "uint256"
        }
      ],
      "name": "marketCreated",
      "type": "event"
    },
    {
      "inputs": [
        {
          "internalType": "uint256",
          "name": "",
          "type": "uint256"
        }
      ],
      "name": "markets",
      "outputs": [
        {
          "internalType": "address",
          "name": "",
          "type": "address"
        }
      ],
      "stateMutability": "view",
      "type": "function",
      "constant": true
    },
    {
      "inputs": [
        {
          "internalType": "string",
          "name": "token1",
          "type": "string"
        },
        {
          "internalType": "string",
          "name": "token2",
          "type": "string"
        },
        {
          "internalType": "enum IMarket.Action",
          "name": "action",
          "type": "uint8"
        },
        {
          "internalType": "uint256",
          "name": "amount",
          "type": "uint256"
        },
        {
          "internalType": "uint256",
          "name": "interval",
          "type": "uint256"
        }
      ],
      "name": "createMarket",
      "outputs": [
        {
          "internalType": "address",
          "name": "",
          "type": "address"
        }
      ],
      "stateMutability": "nonpayable",
      "type": "function"
    },
    {
      "inputs": [],
      "name": "getAllMarkets",
      "outputs": [
        {
          "internalType": "address[]",
          "name": "",
          "type": "address[]"
        }
      ],
      "stateMutability": "view",
      "type": "function",
      "constant": true
    },
    {
      "inputs": [],
      "name": "withdrawLink",
      "outputs": [],
      "stateMutability": "nonpayable",
      "type": "function"
    }
  ],
  "bytecode": "0x608060405234801561001057600080fd5b50614933806100206000396000f3fe60806040523480156200001157600080fd5b5060043610620000525760003560e01c80638dc654a21462000057578063b0772d0b1462000063578063b1283e7714620000c6578063f3402b021462000121575b600080fd5b62000061620002c7565b005b6200006d62000437565b6040518080602001828103825283818151815260200191508051906020019060200280838360005b83811015620000b257808201518184015260208101905062000095565b505050509050019250505060405180910390f35b620000f560048036036020811015620000de57600080fd5b8101908080359060200190929190505050620004c7565b604051808273ffffffffffffffffffffffffffffffffffffffff16815260200191505060405180910390f35b6200029b600480360360a08110156200013957600080fd5b81019080803590602001906401000000008111156200015757600080fd5b8201836020820111156200016a57600080fd5b803590602001918460018302840111640100000000831117156200018d57600080fd5b91908080601f016020809104026020016040519081016040528093929190818152602001838380828437600081840152601f19601f82011690508083019250505050505050919291929080359060200190640100000000811115620001f157600080fd5b8201836020820111156200020457600080fd5b803590602001918460018302840111640100000000831117156200022757600080fd5b91908080601f016020809104026020016040519081016040528093929190818152602001838380828437600081840152601f19601f820116905080830192505050505050509192919290803560ff169060200190929190803590602001909291908035906020019092919050505062000504565b604051808273ffffffffffffffffffffffffffffffffffffffff16815260200191505060405180910390f35b600073a36085f69e2889c224210f603d836748e7dc008890508073ffffffffffffffffffffffffffffffffffffffff1663a9059cbb338373ffffffffffffffffffffffffffffffffffffffff166370a08231306040518263ffffffff1660e01b8152600401808273ffffffffffffffffffffffffffffffffffffffff16815260200191505060206040518083038186803b1580156200036557600080fd5b505afa1580156200037a573d6000803e3d6000fd5b505050506040513d60208110156200039157600080fd5b81019080805190602001909291905050506040518363ffffffff1660e01b8152600401808373ffffffffffffffffffffffffffffffffffffffff16815260200182815260200192505050602060405180830381600087803b158015620003f657600080fd5b505af11580156200040b573d6000803e3d6000fd5b505050506040513d60208110156200042257600080fd5b81019080805190602001909291905050505050565b60606000805480602002602001604051908101604052809291908181526020018280548015620004bd57602002820191906000526020600020905b8160009054906101000a900473ffffffffffffffffffffffffffffffffffffffff1673ffffffffffffffffffffffffffffffffffffffff168152602001906001019080831162000472575b5050505050905090565b60008181548110620004d557fe5b906000526020600020016000915054906101000a900473ffffffffffffffffffffffffffffffffffffffff1681565b6000803387878787876040516200051b90620007e6565b808773ffffffffffffffffffffffffffffffffffffffff16815260200180602001806020018660028111156200054d57fe5b8152602001858152602001848152602001838103835288818151815260200191508051906020019080838360005b83811015620005985780820151818401526020810190506200057b565b50505050905090810190601f168015620005c65780820380516001836020036101000a031916815260200191505b50838103825287818151815260200191508051906020019080838360005b8381101562000601578082015181840152602081019050620005e4565b50505050905090810190601f1680156200062f5780820380516001836020036101000a031916815260200191505b5098505050505050505050604051809103906000f08015801562000657573d6000803e3d6000fd5b5090506000819080600181540180825580915050600190039060005260206000200160009091909190916101000a81548173ffffffffffffffffffffffffffffffffffffffff021916908373ffffffffffffffffffffffffffffffffffffffff16021790555073a36085f69e2889c224210f603d836748e7dc008873ffffffffffffffffffffffffffffffffffffffff1663a9059cbb8267016345785d8a00006040518363ffffffff1660e01b8152600401808373ffffffffffffffffffffffffffffffffffffffff16815260200182815260200192505050602060405180830381600087803b1580156200074b57600080fd5b505af115801562000760573d6000803e3d6000fd5b505050506040513d60208110156200077757600080fd5b8101908080519060200190929190505050508073ffffffffffffffffffffffffffffffffffffffff167f5585c5d2b8e738d2ef57163cb454a45f03f27019c08cb0af01a17aae3373c2118442016040518082815260200191505060405180910390a28091505095945050505050565b61410980620007f58339019056fe608060405260016005556000602060006101000a81548160ff0219169083151502179055503480156200003157600080fd5b5060405162004109380380620041098339818101604052810190620000579190620004b9565b60016000819055506200006f6200025a60201b60201c565b732f90a6d021db21e1b2a077c5a37b3c7e75d15b7e600b60016101000a81548173ffffffffffffffffffffffffffffffffffffffff021916908373ffffffffffffffffffffffffffffffffffffffff1602179055507f3239666139616131336266313436383738386237636334613530306134356238600c8190555067016345785d8a0000600d819055506000600960006101000a81548160ff02191690831515021790555085600e60006101000a81548173ffffffffffffffffffffffffffffffffffffffff021916908373ffffffffffffffffffffffffffffffffffffffff1602179055506000600f60000160006101000a81548160ff021916908360018111156200017957fe5b021790555084600f60010190805190602001906200019992919062000346565b5083600f6002019080519060200190620001b592919062000346565b5081600f6003018190555082600f60040160006101000a81548160ff02191690836002811115620001e257fe5b021790555042600f6005018190555080600f6006018190555080600f6005015401600f600701819055506000600f600801819055506000600f600901819055506000600f600a01819055506032600f600b01819055506032600f600c01819055506000600f600e018190555050505050505062000695565b6200030073c89bd4e1632d3a43cb03aaad5262cbe4038bc57173ffffffffffffffffffffffffffffffffffffffff166338cc48316040518163ffffffff1660e01b815260040160206040518083038186803b158015620002b957600080fd5b505afa158015620002ce573d6000803e3d6000fd5b505050506040513d601f19601f82011682018060405250810190620002f491906200048d565b6200030260201b60201c565b565b80600360006101000a81548173ffffffffffffffffffffffffffffffffffffffff021916908373ffffffffffffffffffffffffffffffffffffffff16021790555050565b828054600181600116156101000203166002900490600052602060002090601f016020900481019282601f106200038957805160ff1916838001178555620003ba565b82800160010185558215620003ba579182015b82811115620003b95782518255916020019190600101906200039c565b5b509050620003c99190620003cd565b5090565b5b80821115620003e8576000816000905550600101620003ce565b5090565b600081519050620003fd8162000650565b92915050565b60008151905062000414816200066a565b92915050565b600082601f8301126200042c57600080fd5b8151620004436200043d82620005af565b62000581565b915080825260208301602083018583830111156200046057600080fd5b6200046d8382846200061a565b50505092915050565b60008151905062000487816200067b565b92915050565b600060208284031215620004a057600080fd5b6000620004b084828501620003ec565b91505092915050565b60008060008060008060c08789031215620004d357600080fd5b6000620004e389828a01620003ec565b965050602087015167ffffffffffffffff8111156200050157600080fd5b6200050f89828a016200041a565b955050604087015167ffffffffffffffff8111156200052d57600080fd5b6200053b89828a016200041a565b94505060606200054e89828a0162000403565b93505060806200056189828a0162000476565b92505060a06200057489828a0162000476565b9150509295509295509295565b6000604051905081810181811067ffffffffffffffff82111715620005a557600080fd5b8060405250919050565b600067ffffffffffffffff821115620005c757600080fd5b601f19601f8301169050602081019050919050565b6000620005e982620005f0565b9050919050565b600073ffffffffffffffffffffffffffffffffffffffff82169050919050565b6000819050919050565b60005b838110156200063a5780820151818401526020810190506200061d565b838111156200064a576000848401525b50505050565b6200065b81620005dc565b81146200066757600080fd5b50565b600381106200067857600080fd5b50565b620006868162000610565b81146200069257600080fd5b50565b613a6480620006a56000396000f3fe6080604052600436106100fe5760003560e01c806347d90b5c116100955780638dc654a2116100645780638dc654a214610318578063902a24f11461032f578063b19ccbf21461036c578063eccf20751461039c578063f1be1679146103d9576100fe565b806347d90b5c1461026c578063653721471461029757806375f12b21146102c2578063853fd421146102ed576100fe565b80632feef2ec116100d15780632feef2ec146101af57806335fa61fa146101da5780633ccfd60b146102185780634357855e14610243576100fe565b80630a7a1c4d146101035780631a29fc801461012e5780631e0419d4146101595780632937ce8014610184575b600080fd5b34801561010f57600080fd5b50610118610404565b6040516101259190613717565b60405180910390f35b34801561013a57600080fd5b5061014361040a565b6040516101509190613717565b60405180910390f35b34801561016557600080fd5b5061016e610410565b60405161017b9190613436565b60405180910390f35b34801561019057600080fd5b50610199610423565b6040516101a69190613436565b60405180910390f35b3480156101bb57600080fd5b506101c461049d565b6040516101d19190613717565b60405180910390f35b3480156101e657600080fd5b5061020160048036038101906101fc91906127da565b6104a3565b60405161020f929190613732565b60405180910390f35b34801561022457600080fd5b5061022d6104d4565b60405161023a9190613436565b60405180910390f35b34801561024f57600080fd5b5061026a60048036038101906102659190612868565b6109ba565b005b34801561027857600080fd5b50610281610b86565b60405161028e9190613314565b60405180910390f35b3480156102a357600080fd5b506102ac610bac565b6040516102b99190613436565b60405180910390f35b3480156102ce57600080fd5b506102d7611250565b6040516102e49190613436565b60405180910390f35b3480156102f957600080fd5b50610302611263565b60405161030f9190613436565b60405180910390f35b34801561032457600080fd5b5061032d611276565b005b34801561033b57600080fd5b50610356600480360381019061035191906128a4565b6113d9565b604051610363919061347a565b60405180910390f35b6103866004803603810190610381919061282c565b6115c1565b6040516103939190613436565b60405180910390f35b3480156103a857600080fd5b506103c360048036038101906103be91906127da565b611a66565b6040516103d09190613436565b60405180910390f35b3480156103e557600080fd5b506103ee611a86565b6040516103fb91906136f5565b60405180910390f35b60085481565b600a5481565b600b60009054906101000a900460ff1681565b6000600e60009054906101000a900473ffffffffffffffffffffffffffffffffffffffff1673ffffffffffffffffffffffffffffffffffffffff163373ffffffffffffffffffffffffffffffffffffffff161461047f57600080fd5b6001602060006101000a81548160ff02191690831515021790555090565b60075481565b601e6020528060005260406000206000915090508060000154908060010160009054906101000a900460ff16905082565b600042600f600701541061051d576040517f08c379a0000000000000000000000000000000000000000000000000000000008152600401610514906134b5565b60405180910390fd5b60018081111561052957fe5b600f60000160009054906101000a900460ff16600181111561054757fe5b14610587576040517f08c379a000000000000000000000000000000000000000000000000000000000815260040161057e90613495565b60405180910390fd5b60011515600960009054906101000a900460ff161515146105a757600080fd5b600260005414156105ed576040517f08c379a00000000000000000000000000000000000000000000000000000000081526004016105e4906136b5565b60405180910390fd5b6002600081905550602060009054906101000a900460ff16610644576040517f08c379a000000000000000000000000000000000000000000000000000000000815260040161063b90613575565b60405180910390fd5b601f60003373ffffffffffffffffffffffffffffffffffffffff1673ffffffffffffffffffffffffffffffffffffffff16815260200190815260200160002060009054906101000a900460ff166106d0576040517f08c379a00000000000000000000000000000000000000000000000000000000081526004016106c790613535565b60405180910390fd5b6000601e60003373ffffffffffffffffffffffffffffffffffffffff1673ffffffffffffffffffffffffffffffffffffffff168152602001908152602001600020600001541415610756576040517f08c379a000000000000000000000000000000000000000000000000000000000815260040161074d906135f5565b60405180910390fd5b61075e6125d7565b601e60003373ffffffffffffffffffffffffffffffffffffffff1673ffffffffffffffffffffffffffffffffffffffff168152602001908152602001600020604051806040016040529081600082015481526020016001820160009054906101000a900460ff161515151581525050905080602001511515600b60009054906101000a900460ff16151514610828576040517f08c379a000000000000000000000000000000000000000000000000000000000815260040161081f90613695565b60405180910390fd5b6000600b60009054906101000a900460ff16156108635761085c600f60090154600f600e0154611cbe90919063ffffffff16565b9050610883565b610880600f600a0154600f600e0154611cbe90919063ffffffff16565b90505b6000601e60003373ffffffffffffffffffffffffffffffffffffffff1673ffffffffffffffffffffffffffffffffffffffff16815260200190815260200160002060000181905550600081905080471015610913576040517f08c379a000000000000000000000000000000000000000000000000000000000815260040161090a906135d5565b60405180910390fd5b3373ffffffffffffffffffffffffffffffffffffffff166108fc829081150290604051600060405180830381858888f19350505050158015610959573d6000803e3d6000fd5b503373ffffffffffffffffffffffffffffffffffffffff167f736fe5656fcd35d9d20cbd1c42f7f6256ee31aea93b61054d47141c4927e220a826040516109a09190613717565b60405180910390a260019350505050600160008190555090565b816006600082815260200190815260200160002060009054906101000a900473ffffffffffffffffffffffffffffffffffffffff1673ffffffffffffffffffffffffffffffffffffffff163373ffffffffffffffffffffffffffffffffffffffff1614610a5c576040517f08c379a0000000000000000000000000000000000000000000000000000000008152600401610a5390613675565b60405180910390fd5b6006600082815260200190815260200160002060006101000a81549073ffffffffffffffffffffffffffffffffffffffff0219169055807f7cc135e0cebb02c3480ae5d74d377283180a2601f8f644edf7987b009316c63a60405160405180910390a281600a819055506001600960006101000a81548160ff02191690831515021790555060006008541415610b1b57600a54670de0b6b3a76400006007540211600b60006101000a81548160ff021916908315150217905550610b81565b60016008541415610b5557600a54670de0b6b3a76400006007540210600b60006101000a81548160ff021916908315150217905550610b80565b600a54670de0b6b3a76400006007540214600b60006101000a81548160ff0219169083151502179055505b5b505050565b600e60009054906101000a900473ffffffffffffffffffffffffffffffffffffffff1681565b600042600f6007015410610bf5576040517f08c379a0000000000000000000000000000000000000000000000000000000008152600401610bec906134b5565b60405180910390fd5b60006001811115610c0257fe5b600f60000160009054906101000a900460ff166001811115610c2057fe5b14610c60576040517f08c379a0000000000000000000000000000000000000000000000000000000008152600401610c57906135b5565b60405180910390fd5b60001515600960009054906101000a900460ff16151514610c8057600080fd5b600e60009054906101000a900473ffffffffffffffffffffffffffffffffffffffff1673ffffffffffffffffffffffffffffffffffffffff163373ffffffffffffffffffffffffffffffffffffffff161480610d255750601f60003373ffffffffffffffffffffffffffffffffffffffff1673ffffffffffffffffffffffffffffffffffffffff16815260200190815260200160002060009054906101000a900460ff165b610d64576040517f08c379a0000000000000000000000000000000000000000000000000000000008152600401610d5b90613535565b60405180910390fd5b60006002811115610d7157fe5b600f60040160009054906101000a900460ff166002811115610d8f57fe5b1415610ee757610ee1600f6001018054600181600116156101000203166002900480601f016020809104026020016040519081016040528092919081815260200182805460018160011615610100020316600290048015610e315780601f10610e0657610100808354040283529160200191610e31565b820191906000526020600020905b815481529060010190602001808311610e1457829003601f168201915b5050505050600f6002018054600181600116156101000203166002900480601f016020809104026020016040519081016040528092919081815260200182805460018160011615610100020316600290048015610ecf5780601f10610ea457610100808354040283529160200191610ecf565b820191906000526020600020905b815481529060010190602001808311610eb257829003601f168201915b50505050506000600f600301546113d9565b506111b9565b60016002811115610ef457fe5b600f60040160009054906101000a900460ff166002811115610f1257fe5b141561106a57611064600f6001018054600181600116156101000203166002900480601f016020809104026020016040519081016040528092919081815260200182805460018160011615610100020316600290048015610fb45780601f10610f8957610100808354040283529160200191610fb4565b820191906000526020600020905b815481529060010190602001808311610f9757829003601f168201915b5050505050600f6002018054600181600116156101000203166002900480601f0160208091040260200160405190810160405280929190818152602001828054600181600116156101000203166002900480156110525780601f1061102757610100808354040283529160200191611052565b820191906000526020600020905b81548152906001019060200180831161103557829003601f168201915b50505050506001600f600301546113d9565b506111b8565b6111b6600f6001018054600181600116156101000203166002900480601f0160208091040260200160405190810160405280929190818152602001828054600181600116156101000203166002900480156111065780601f106110db57610100808354040283529160200191611106565b820191906000526020600020905b8154815290600101906020018083116110e957829003601f168201915b5050505050600f6002018054600181600116156101000203166002900480601f0160208091040260200160405190810160405280929190818152602001828054600181600116156101000203166002900480156111a45780601f10611179576101008083540402835291602001916111a4565b820191906000526020600020905b81548152906001019060200180831161118757829003601f168201915b50505050506002600f600301546113d9565b505b5b6001600f60000160006101000a81548160ff021916908360018111156111db57fe5b02179055506001602060006101000a81548160ff0219169083151502179055503073ffffffffffffffffffffffffffffffffffffffff167fd0ac939165b7c58d3e538fc6805c054dc52f8ecc700d7b57821247cf4268640f33604051611241919061332f565b60405180910390a26001905090565b602060009054906101000a900460ff1681565b600960009054906101000a900460ff1681565b6000611280611d1a565b90508073ffffffffffffffffffffffffffffffffffffffff1663a9059cbb338373ffffffffffffffffffffffffffffffffffffffff166370a08231306040518263ffffffff1660e01b81526004016112d89190613314565b60206040518083038186803b1580156112f057600080fd5b505afa158015611304573d6000803e3d6000fd5b505050506040513d601f19601f820116820180604052508101906113289190612937565b6040518363ffffffff1660e01b815260040161134592919061334a565b602060405180830381600087803b15801561135f57600080fd5b505af1158015611373573d6000803e3d6000fd5b505050506040513d601f19601f820116820180604052508101906113979190612803565b6113d6576040517f08c379a00000000000000000000000000000000000000000000000000000000081526004016113cd90613615565b60405180910390fd5b50565b60006113e36125f3565b6113f7600c5430634357855e60e01b611d44565b90506114a26040518060400160405280600381526020017f67657400000000000000000000000000000000000000000000000000000000008152508760405160200161144391906132c3565b6040516020818303038152906040528760405160200161146391906132a1565b6040516020818303038152906040526040516020016114839291906132e5565b60405160208183030381529060405283611d759092919063ffffffff16565b6115216040518060400160405280600481526020017f70617468000000000000000000000000000000000000000000000000000000008152506040518060400160405280600381526020017f555344000000000000000000000000000000000000000000000000000000000081525083611d759092919063ffffffff16565b6000670de0b6b3a764000090506115786040518060400160405280600581526020017f74696d65730000000000000000000000000000000000000000000000000000008152508284611da89092919063ffffffff16565b84600881905550836007819055506115b5600b60019054906101000a900473ffffffffffffffffffffffffffffffffffffffff1683600d54611ddb565b92505050949350505050565b600042600f60070154101561160b576040517f08c379a000000000000000000000000000000000000000000000000000000000815260040161160290613555565b60405180910390fd5b602060009054906101000a900460ff161561165b576040517f08c379a0000000000000000000000000000000000000000000000000000000008152600401611652906134d5565b60405180910390fd5b60001515601f60003373ffffffffffffffffffffffffffffffffffffffff1673ffffffffffffffffffffffffffffffffffffffff16815260200190815260200160002060009054906101000a900460ff161515146116ee576040517f08c379a00000000000000000000000000000000000000000000000000000000081526004016116e590613655565b60405180910390fd5b8215611753573461170d83600f600b0154611fa590919063ffffffff16565b111561174e576040517f08c379a0000000000000000000000000000000000000000000000000000000008152600401611745906136d5565b60405180910390fd5b6117ae565b3461176c83600f600c0154611fa590919063ffffffff16565b11156117ad576040517f08c379a00000000000000000000000000000000000000000000000000000000081526004016117a4906136d5565b60405180910390fd5b5b6117c76001600f6008015461201590919063ffffffff16565b600f60080181905550821561186f576117ef6001600f6009015461201590919063ffffffff16565b600f60090181905550611828600f6008015461181a6064600f60090154611fa590919063ffffffff16565b611cbe90919063ffffffff16565b600f600b0181905550611861600f600801546118536064600f600a0154611fa590919063ffffffff16565b611cbe90919063ffffffff16565b600f600c0181905550611904565b6118886001600f600a015461201590919063ffffffff16565b600f600a01819055506118c1600f600801546118b36064600f600a0154611fa590919063ffffffff16565b611cbe90919063ffffffff16565b600f600c01819055506118fa600f600801546118ec6064600f60090154611fa590919063ffffffff16565b611cbe90919063ffffffff16565b600f600b01819055505b61190c6125d7565b6040518060400160405280848152602001851515815250905080601e60003373ffffffffffffffffffffffffffffffffffffffff1673ffffffffffffffffffffffffffffffffffffffff1681526020019081526020016000206000820151816000015560208201518160010160006101000a81548160ff0219169083151502179055509050506001601f60003373ffffffffffffffffffffffffffffffffffffffff1673ffffffffffffffffffffffffffffffffffffffff16815260200190815260200160002060006101000a81548160ff021916908315150217905550611a0234600f600e015461201590919063ffffffff16565b600f600e01819055503373ffffffffffffffffffffffffffffffffffffffff167fd6b6c4630e01992c8bbd816cee0f84c0ca39b71a8c774b762833fda84b53676f8585604051611a53929190613451565b60405180910390a2600191505092915050565b601f6020528060005260406000206000915054906101000a900460ff1681565b611a8e612660565b600f604051806101e00160405290816000820160009054906101000a900460ff166001811115611aba57fe5b6001811115611ac557fe5b8152602001600182018054600181600116156101000203166002900480601f016020809104026020016040519081016040528092919081815260200182805460018160011615610100020316600290048015611b625780601f10611b3757610100808354040283529160200191611b62565b820191906000526020600020905b815481529060010190602001808311611b4557829003601f168201915b50505050508152602001600282018054600181600116156101000203166002900480601f016020809104026020016040519081016040528092919081815260200182805460018160011615610100020316600290048015611c045780601f10611bd957610100808354040283529160200191611c04565b820191906000526020600020905b815481529060010190602001808311611be757829003601f168201915b50505050508152602001600382015481526020016004820160009054906101000a900460ff166002811115611c3557fe5b6002811115611c4057fe5b81526020016005820154815260200160068201548152602001600782015481526020016008820154815260200160098201548152602001600a8201548152602001600b8201548152602001600c8201548152602001600d820160009054906101000a900460ff16151515158152602001600e82015481525050905090565b6000808211611d02576040517f08c379a0000000000000000000000000000000000000000000000000000000008152600401611cf990613595565b60405180910390fd5b6000828481611d0d57fe5b0490508091505092915050565b6000600360009054906101000a900473ffffffffffffffffffffffffffffffffffffffff16905090565b611d4c6125f3565b611d546125f3565b611d6b8585858461206a909392919063ffffffff16565b9150509392505050565b611d8c82846080015161211a90919063ffffffff16565b611da381846080015161211a90919063ffffffff16565b505050565b611dbf82846080015161211a90919063ffffffff16565b611dd681846080015161213f90919063ffffffff16565b505050565b600030600554604051602001611df2929190613275565b604051602081830303815290604052805190602001209050600554836060018181525050836006600083815260200190815260200160002060006101000a81548173ffffffffffffffffffffffffffffffffffffffff021916908373ffffffffffffffffffffffffffffffffffffffff160217905550807fb5e6e01e79f91267dc17b4e6314d5d4d03593d2ceee0fbb452b750bd70ea5af960405160405180910390a2600360009054906101000a900473ffffffffffffffffffffffffffffffffffffffff1673ffffffffffffffffffffffffffffffffffffffff16634000aea08584611ede8761218b565b6040518463ffffffff1660e01b8152600401611efc939291906133f8565b602060405180830381600087803b158015611f1657600080fd5b505af1158015611f2a573d6000803e3d6000fd5b505050506040513d601f19601f82011682018060405250810190611f4e9190612803565b611f8d576040517f08c379a0000000000000000000000000000000000000000000000000000000008152600401611f8490613515565b60405180910390fd5b60016005600082825401925050819055509392505050565b600080831415611fb8576000905061200f565b6000828402905082848281611fc957fe5b041461200a576040517f08c379a000000000000000000000000000000000000000000000000000000000815260040161200190613635565b60405180910390fd5b809150505b92915050565b600080828401905083811015612060576040517f08c379a0000000000000000000000000000000000000000000000000000000008152600401612057906134f5565b60405180910390fd5b8091505092915050565b6120726125f3565b6120828560800151610100612232565b508385600001818152505082856020019073ffffffffffffffffffffffffffffffffffffffff16908173ffffffffffffffffffffffffffffffffffffffff16815250508185604001907bffffffffffffffffffffffffffffffffffffffffffffffffffffffff191690817bffffffffffffffffffffffffffffffffffffffffffffffffffffffff191681525050849050949350505050565b6121278260038351612286565b61213a81836123cb90919063ffffffff16565b505050565b600081126121585761215382600083612286565b612187565b612186826001837fffffffffffffffffffffffffffffffffffffffffffffffffffffffffffffffff03612286565b5b5050565b6060634042994660e01b600080846000015185602001518660400151876060015160018960800151600001516040516024016121ce989796959493929190613373565b604051602081830303815290604052907bffffffffffffffffffffffffffffffffffffffffffffffffffffffff19166020820180517bffffffffffffffffffffffffffffffffffffffffffffffffffffffff83818316178352505050509050919050565b61223a6126ee565b60006020838161224657fe5b061461225f576020828161225657fe5b06602003820191505b81836020018181525050604051808452600081528281016020016040525082905092915050565b601781116122b3576122ad8160058460ff16901b60ff1617846123ed90919063ffffffff16565b506123c6565b60ff81116122f5576122d8601860058460ff16901b17846123ed90919063ffffffff16565b506122ef8160018561240d9092919063ffffffff16565b506123c5565b61ffff81116123385761231b601960058460ff16901b17846123ed90919063ffffffff16565b506123328160028561240d9092919063ffffffff16565b506123c4565b63ffffffff811161237d57612360601a60058460ff16901b17846123ed90919063ffffffff16565b506123778160048561240d9092919063ffffffff16565b506123c3565b67ffffffffffffffff81116123c2576123a9601b60058460ff16901b17846123ed90919063ffffffff16565b506123c08160088561240d9092919063ffffffff16565b505b5b5b5b5b505050565b6123d36126ee565b6123e58384600001515184855161242f565b905092915050565b6123f56126ee565b61240583846000015151846124e8565b905092915050565b6124156126ee565b612426848560000151518585612536565b90509392505050565b6124376126ee565b825182111561244557600080fd5b846020015182850111156124705761246f8560026124698860200151888701612597565b026125b3565b5b60008086518051876020830101935080888701111561248f5787860182525b60208701925050505b602084106124bb5780518252602082019150602081019050602084039350612498565b60006001856020036101000a03905080198251168184511681811785525050879350505050949350505050565b6124f06126ee565b8360200151831061250d5761250c8460028660200151026125b3565b5b8351805160208583010184815381861415612529576001820183525b5050508390509392505050565b61253e6126ee565b8460200151848301111561255c5761255b856002868501026125b3565b5b60006001836101000a03905085518386820101858319825116178152815185880111156125895784870182525b505085915050949350505050565b6000818311156125a9578290506125ad565b8190505b92915050565b6060826000015190506125c68383612232565b506125d183826123cb565b50505050565b6040518060400160405280600081526020016000151581525090565b6040518060a0016040528060008019168152602001600073ffffffffffffffffffffffffffffffffffffffff16815260200160007bffffffffffffffffffffffffffffffffffffffffffffffffffffffff191681526020016000815260200161265a6126ee565b81525090565b604051806101e001604052806000600181111561267957fe5b8152602001606081526020016060815260200160008152602001600060028111156126a057fe5b81526020016000815260200160008152602001600081526020016000815260200160008152602001600081526020016000815260200160008152602001600015158152602001600081525090565b604051806040016040528060608152602001600081525090565b600081359050612717816139d2565b92915050565b60008135905061272c816139e9565b92915050565b600081519050612741816139e9565b92915050565b60008135905061275681613a00565b92915050565b600082601f83011261276d57600080fd5b813561278061277b82613788565b61375b565b9150808252602083016020830185838301111561279c57600080fd5b6127a783828461392a565b50505092915050565b6000813590506127bf81613a17565b92915050565b6000815190506127d481613a17565b92915050565b6000602082840312156127ec57600080fd5b60006127fa84828501612708565b91505092915050565b60006020828403121561281557600080fd5b600061282384828501612732565b91505092915050565b6000806040838503121561283f57600080fd5b600061284d8582860161271d565b925050602061285e858286016127b0565b9150509250929050565b6000806040838503121561287b57600080fd5b600061288985828601612747565b925050602061289a858286016127b0565b9150509250929050565b600080600080608085870312156128ba57600080fd5b600085013567ffffffffffffffff8111156128d457600080fd5b6128e08782880161275c565b945050602085013567ffffffffffffffff8111156128fd57600080fd5b6129098782880161275c565b935050604061291a878288016127b0565b925050606061292b878288016127b0565b91505092959194509250565b60006020828403121561294957600080fd5b6000612957848285016127c5565b91505092915050565b612969816138ac565b82525050565b61297881613808565b82525050565b6129878161381a565b82525050565b6129968161381a565b82525050565b6129a581613826565b82525050565b6129b481613830565b82525050565b60006129c5826137b4565b6129cf81856137ca565b93506129df818560208601613939565b6129e88161399a565b840191505092915050565b612a046129ff826138be565b61396c565b82525050565b612a13816138e2565b82525050565b612a22816138f4565b82525050565b6000612a33826137bf565b612a3d81856137db565b9350612a4d818560208601613939565b612a568161399a565b840191505092915050565b6000612a6c826137bf565b612a7681856137fd565b9350612a86818560208601613939565b80840191505092915050565b6000612a9f601a836137ec565b91507f4d61726b6574206973206e6f74207265736f6c766564207965740000000000006000830152602082019050919050565b6000612adf6007836137fd565b91507f267473796d733d000000000000000000000000000000000000000000000000006000830152600782019050919050565b6000612b1f6016836137ec565b91507f4d61726b6574206973207374696c6c20616374697665000000000000000000006000830152602082019050919050565b6000612b5f6014836137ec565b91507f73746f7070656420696e20656d657267656e63790000000000000000000000006000830152602082019050919050565b6000612b9f601b836137ec565b91507f536166654d6174683a206164646974696f6e206f766572666c6f7700000000006000830152602082019050919050565b6000612bdf6023836137ec565b91507f756e61626c6520746f207472616e73666572416e6443616c6c20746f206f726160008301527f636c6500000000000000000000000000000000000000000000000000000000006020830152604082019050919050565b6000612c45600e836137ec565b91507f4e6f7420617574686f72697365640000000000000000000000000000000000006000830152602082019050919050565b6000612c85602a836137ec565b91507f4d61726b6574206973206e6f7420616363657074696e6720707265646963746960008301527f6f6e20616e796d6f7265000000000000000000000000000000000000000000006020830152604082019050919050565b6000612ceb6011836137ec565b91507f6f6e6c7920696e20656d657267656e63790000000000000000000000000000006000830152602082019050919050565b6000612d2b601a836137ec565b91507f536166654d6174683a206469766973696f6e206279207a65726f0000000000006000830152602082019050919050565b6000612d6b601a836137ec565b91507f4d61726b657420697320616c7265616479207265736f6c7665640000000000006000830152602082019050919050565b6000612dab6012836137ec565b91507f4e6f7420656e6f7567682062616c616e636500000000000000000000000000006000830152602082019050919050565b6000612deb6011836137ec565b91507f416c72656164792077697468647261776e0000000000000000000000000000006000830152602082019050919050565b6000612e2b6005836137fd565b91507f6673796d3d0000000000000000000000000000000000000000000000000000006000830152600582019050919050565b6000612e6b6012836137ec565b91507f556e61626c6520746f207472616e7366657200000000000000000000000000006000830152602082019050919050565b6000612eab6021836137ec565b91507f536166654d6174683a206d756c7469706c69636174696f6e206f766572666c6f60008301527f77000000000000000000000000000000000000000000000000000000000000006020830152604082019050919050565b6000612f11602c836137ec565b91507f596f75206861766520616c72656164792070617274696369706174656420696e60008301527f2074686973206d61726b657400000000000000000000000000000000000000006020830152604082019050919050565b6000612f77602d836137fd565b91507f68747470733a2f2f6d696e2d6170692e63727970746f636f6d706172652e636f60008301527f6d2f646174612f70726963653f000000000000000000000000000000000000006020830152602d82019050919050565b6000612fdd6028836137ec565b91507f536f75726365206d75737420626520746865206f7261636c65206f662074686560008301527f20726571756573740000000000000000000000000000000000000000000000006020830152604082019050919050565b6000613043600e836137ec565b91507f536f72727920796f75206c6f73740000000000000000000000000000000000006000830152602082019050919050565b6000613083601f836137ec565b91507f5265656e7472616e637947756172643a207265656e7472616e742063616c6c006000830152602082019050919050565b60006130c36011836137ec565b91507f4e6f7420656e6f75676820616d6f756e740000000000000000000000000000006000830152602082019050919050565b60006101e08301600083015161310f6000860182612a19565b50602083015184820360208601526131278282612a28565b915050604083015184820360408601526131418282612a28565b91505060608301516131566060860182613240565b5060808301516131696080860182612a0a565b5060a083015161317c60a0860182613240565b5060c083015161318f60c0860182613240565b5060e08301516131a260e0860182613240565b506101008301516131b7610100860182613240565b506101208301516131cc610120860182613240565b506101408301516131e1610140860182613240565b506101608301516131f6610160860182613240565b5061018083015161320b610180860182613240565b506101a08301516132206101a086018261297e565b506101c08301516132356101c0860182613240565b508091505092915050565b613249816138a2565b82525050565b613258816138a2565b82525050565b61326f61326a826138a2565b613990565b82525050565b600061328182856129f3565b601482019150613291828461325e565b6020820191508190509392505050565b60006132ac82612ad2565b91506132b88284612a61565b915081905092915050565b60006132ce82612e1e565b91506132da8284612a61565b915081905092915050565b60006132f082612f6a565b91506132fc8285612a61565b91506133088284612a61565b91508190509392505050565b6000602082019050613329600083018461296f565b92915050565b60006020820190506133446000830184612960565b92915050565b600060408201905061335f6000830185612960565b61336c602083018461324f565b9392505050565b600061010082019050613389600083018b61296f565b613396602083018a61324f565b6133a3604083018961299c565b6133b0606083018861296f565b6133bd60808301876129ab565b6133ca60a083018661324f565b6133d760c083018561324f565b81810360e08301526133e981846129ba565b90509998505050505050505050565b600060608201905061340d600083018661296f565b61341a602083018561324f565b818103604083015261342c81846129ba565b9050949350505050565b600060208201905061344b600083018461298d565b92915050565b6000604082019050613466600083018561298d565b613473602083018461324f565b9392505050565b600060208201905061348f600083018461299c565b92915050565b600060208201905081810360008301526134ae81612a92565b9050919050565b600060208201905081810360008301526134ce81612b12565b9050919050565b600060208201905081810360008301526134ee81612b52565b9050919050565b6000602082019050818103600083015261350e81612b92565b9050919050565b6000602082019050818103600083015261352e81612bd2565b9050919050565b6000602082019050818103600083015261354e81612c38565b9050919050565b6000602082019050818103600083015261356e81612c78565b9050919050565b6000602082019050818103600083015261358e81612cde565b9050919050565b600060208201905081810360008301526135ae81612d1e565b9050919050565b600060208201905081810360008301526135ce81612d5e565b9050919050565b600060208201905081810360008301526135ee81612d9e565b9050919050565b6000602082019050818103600083015261360e81612dde565b9050919050565b6000602082019050818103600083015261362e81612e5e565b9050919050565b6000602082019050818103600083015261364e81612e9e565b9050919050565b6000602082019050818103600083015261366e81612f04565b9050919050565b6000602082019050818103600083015261368e81612fd0565b9050919050565b600060208201905081810360008301526136ae81613036565b9050919050565b600060208201905081810360008301526136ce81613076565b9050919050565b600060208201905081810360008301526136ee816130b6565b9050919050565b6000602082019050818103600083015261370f81846130f6565b905092915050565b600060208201905061372c600083018461324f565b92915050565b6000604082019050613747600083018561324f565b613754602083018461298d565b9392505050565b6000604051905081810181811067ffffffffffffffff8211171561377e57600080fd5b8060405250919050565b600067ffffffffffffffff82111561379f57600080fd5b601f19601f8301169050602081019050919050565b600081519050919050565b600081519050919050565b600082825260208201905092915050565b600082825260208201905092915050565b600082825260208201905092915050565b600081905092915050565b600061381382613882565b9050919050565b60008115159050919050565b6000819050919050565b60007fffffffff0000000000000000000000000000000000000000000000000000000082169050919050565b600081905061386a826139b8565b919050565b600081905061387d826139c5565b919050565b600073ffffffffffffffffffffffffffffffffffffffff82169050919050565b6000819050919050565b60006138b782613906565b9050919050565b60006138c9826138d0565b9050919050565b60006138db82613882565b9050919050565b60006138ed8261385c565b9050919050565b60006138ff8261386f565b9050919050565b600061391182613918565b9050919050565b600061392382613882565b9050919050565b82818337600083830152505050565b60005b8381101561395757808201518184015260208101905061393c565b83811115613966576000848401525b50505050565b60006139778261397e565b9050919050565b6000613989826139ab565b9050919050565b6000819050919050565b6000601f19601f8301169050919050565b60008160601b9050919050565b600381106139c257fe5b50565b600281106139cf57fe5b50565b6139db81613808565b81146139e657600080fd5b50565b6139f28161381a565b81146139fd57600080fd5b50565b613a0981613826565b8114613a1457600080fd5b50565b613a20816138a2565b8114613a2b57600080fd5b5056fea2646970667358221220ed269bfe428ed0a54496f6085483ad7ee38cf68f8c18cca6e6304c6d1ef76efc64736f6c634300060c0033a2646970667358221220c0b24f16542e466a4b76234db428df78831b5f516851c6c2bb6d869b0946b45564736f6c634300060c0033",
  "immutableReferences": {},
  "source": "pragma solidity >=0.6.0;\nimport './Market.sol';\nimport \"@openzeppelin/contracts/token/ERC20/IERC20.sol\";\n\n/// @title Cryptocurrency Price Prediction Market factory Contract\n/// @notice Factory that allows end-users to create new markets\n/// @dev Imports Market Contarct and create new market using it\n/// @author Kuldeep K. Srivastava\ncontract PricePredictionMarketFactory {\n    \n    //  @notice List of all market's contracts addressess\n    //  @return Returns all market's addressess\n    address[] public markets;\n    event marketCreated(address indexed, uint endTime);\n    \n    //  @notice Allows an end-user to create a new market for any particular Cryptocurrency\n    //  @dev Uses Market Smart Contract\n    //  @param token1 Token1 for which market will be created\n    //  @param token2 Token2 for which market will be created if there is comparison b/w 2 tokens price\n    //  @param action Action which this end-user wants such as less than, greater than or equal to\n    //  @param amount Amount in USD which will be set by end-user to perform the action eg. Token1 less than 200 USD\n    //  @param interval Time period after which the market will be resolved eg. Token will be more than 300 after 2 days from now\n    //  @return Return address of the newly generated Market Contarct\n    function createMarket(string memory token1, string memory token2, IMarket.Action action, uint amount, uint interval) public returns(address) {\n        address newMarket = address(new Market(msg.sender, token1, token2, action, amount, interval));\n        markets.push(newMarket);\n        IERC20(address(0xa36085F69e2889c224210F603D836748e7dC0088)).transfer(newMarket, 10**17);\n        emit marketCreated(newMarket, block.timestamp + interval);\n        return newMarket;\n    }\n    \n    //  @notice Get all markets addressess\n    //  @return All the markets addressess\n    function getAllMarkets() public view returns(address[] memory) {\n        return markets;\n    }\n    \n     /**\n     * Withdraw LINK from this contract\n     * \n     * NOTE: DO NOT USE THIS IN PRODUCTION AS IT CAN BE CALLED BY ANY ADDRESS.\n     * THIS IS PURELY FOR EXAMPLE PURPOSES ONLY.\n     */\n    function withdrawLink() external {\n        IERC20 c =  IERC20(address(0xa36085F69e2889c224210F603D836748e7dC0088));\n        c.transfer(msg.sender, c.balanceOf(address(this)));\n    }\n}",
  "sourcePath": "/home/kuldeep/ETHEREUM/consensys-final-project/cricket-prediction-market/contracts/PricePredictionMarketFactory.sol",
  "compiler": {
    "name": "solc",
    "version": "0.6.12+commit.27d51765.Emscripten.clang"
  },
  "schemaVersion": "3.2.5",
  "updatedAt": "2020-12-27T11:56:32.840Z",
  "networkType": "ethereum",
  "devdoc": {
    "author": "Kuldeep K. Srivastava",
    "details": "Imports Market Contarct and create new market using it",
    "kind": "dev",
    "methods": {},
    "title": "Cryptocurrency Price Prediction Market factory Contract",
    "version": 1
  },
  "userdoc": {
    "kind": "user",
    "methods": {
      "withdrawLink()": {
        "notice": "Withdraw LINK from this contract  NOTE: DO NOT USE THIS IN PRODUCTION AS IT CAN BE CALLED BY ANY ADDRESS. THIS IS PURELY FOR EXAMPLE PURPOSES ONLY."
      }
    },
    "notice": "Factory that allows end-users to create new markets",
    "version": 1
  }
}